:020000040800F2
:108000000000022099E90008F1D80008F3D8000820
:10801000F5D80008F7D80008F9D8000800000000DB
:10802000000000000000000000000000FBD8000875
:10803000FDD8000800000000FFD8000801D90008A2
:10804000E9E90008E9E90008E9E90008E9E90008C8
:10805000E9E90008E9E90008E9E90008E9E90008B8
:10806000E9E90008E9E90008E9E90008E9E90008A8
:10807000E9E90008E9E90008E9E90008E9E9000898
:1080800005D90008E9E90008E9E900080000000056
:10809000000000000000000000000000E9E9000806
:1080A000E9E90008E9E90008E9E90008E9E9000868
:1080B000E9E90008E9E90008E9E90008E9E9000858
:1080C000E9E90008E9E90008E9E90008E9E9000848
:1080D000E9E90008E9E90008E9E900080000000012
:1080E00011D90008E9E90008E9E9000800000000EA
:1080F000000000000000000000000000E9E90008A6
:1081000000000000E9E90008E9E90008E9E90008E1
:10811000000000000000000000000000000000005F
:10812000E9E90008E9E9000819D90008E9E90008C7
:10813000E9E9000800000000000000000000000065
:10814000000000000000000000000000E9E9000855
:10815000E9E90008E9E90008E9E90008E9E90008B7
:10816000E9E90008E9E9000800000000000000005B
:1081700000000000000000000000000000000000FF
:1081800000000000E9E90008000000000000000015
:08819000E9E90008E9E9000833
:1081A00010B5054C237833B9044B13B10448AFF331
:1081B00000800123237010BD801700200000000004
:1081C000C016010808B5034B1BB103490348AFF3C0
:1081D000008008BD0000000084170020C0160108C0
:1081E000034613F8012B002AFBD1181A01387047F7
:1081F00001F0FF01102A2BDB10F0070F08D010F858
:10820000013B013A8B422DD010F0070F42B3F6D15B
:10821000F0B441EA012141EA014122F007047FF074
:1082200000070023F0E80256083C85EA010586EACB
:10823000010685FA47F5A3FA87F586FA47F6A5FA07
:1082400087F68EB9EED1F0BC01F0FF0102F0070213
:1082500032B110F8013B013A83EA010313B1F8D1BE
:108260000020704701387047002D06BF354603389F
:10827000073815F0010F07D1013015F4807F02BFD8
:10828000013015F4C03F0130F0BC0138704700BF29
:1082900081F0004102E000BF83F0004330B54FEAB7
:1082A00041044FEA430594EA050F08BF90EA020F24
:1082B0001FBF54EA000C55EA020C7FEA645C7FEAB7
:1082C000655C00F0E2804FEA5454D4EB5555B8BFDA
:1082D0006D420CDD2C4480EA020281EA030382EA4B
:1082E000000083EA010180EA020281EA0303362DDD
:1082F00088BF30BD11F0004F4FEA01314FF4801CB0
:108300004CEA113102D0404261EB410113F0004FC1
:108310004FEA03334CEA133302D0524263EB430378
:1083200094EA050F00F0A780A4F10104D5F1200E16
:108330000DDB02FA0EFC22FA05F2801841F1000171
:1083400003FA0EF2801843FA05F359410EE0A5F145
:1083500020050EF1200E012A03FA0EFC28BF4CF076
:10836000020C43FA05F3C01851EBE37101F000452C
:1083700007D54FF0000EDCF1000C7EEB00006EEB39
:108380000101B1F5801F1BD3B1F5001F0CD34908C3
:108390005FEA30004FEA3C0C04F101044FEA44521A
:1083A00012F5800F80F09A80BCF1004F08BF5FEAA1
:1083B000500C50F1000041EB045141EA050130BD81
:1083C0005FEA4C0C404141EB010111F4801FA4F124
:1083D0000104E9D191F0000F04BF01460020B1FA79
:1083E00081F308BF2033A3F10B03B3F120020CDAB1
:1083F0000C3208DD02F1140CC2F10C0201FA0CF08F
:1084000021FA02F10CE002F11402D8BFC2F1200CF3
:1084100001FA02F120FA0CFCDCBF41EA0C019040A9
:10842000E41AA2BF01EB0451294330BD6FEA0404F2
:108430001F3C1CDA0C340EDC04F11404C4F12002DD
:1084400020FA04F001FA02F340EA030021FA04F3EF
:1084500045EA030130BDC4F10C04C4F1200220FA46
:1084600002F001FA04F340EA0300294630BD21FA84
:1084700004F0294630BD94F0000F83F4801306BF4A
:1084800081F480110134013D4EE77FEA645C18BF3E
:108490007FEA655C29D094EA050F08BF90EA020FD5
:1084A00005D054EA000C04BF1946104630BD91EACD
:1084B000030F1EBF0021002030BD5FEA545C05D1D0
:1084C0004000494128BF41F0004130BD14F580040F
:1084D0003CBF01F5801130BD01F0004545F0FE4183
:1084E00041F470014FF0000030BD7FEA645C1ABFB8
:1084F000194610467FEA655C1CBF0B46024650EAEF
:10850000013406BF52EA033591EA030F41F400211A
:1085100030BD00BF90F0000F04BF0021704730B5A0
:108520004FF4806404F132044FF000054FF0000175
:1085300050E700BF90F0000F04BF0021704730B536
:108540004FF4806404F1320410F0004548BF40420B
:108550004FF000013EE700BF42004FEAE2014FEA60
:1085600031014FEA02701FBF12F07F4393F07F4F3B
:1085700081F06051704792F0000F14BF93F07F4F6D
:10858000704730B54FF4607401F0004521F00041B0
:1085900020E700BF50EA010208BF704730B54FF036
:1085A00000050AE050EA010208BF704730B511F03B
:1085B000004502D5404261EB41014FF4806404F173
:1085C00032045FEA915C3FF4DCAE4FF003025FEAF5
:1085D000DC0C18BF03325FEADC0C18BF033202EB7D
:1085E000DC02C2F1200300FA03FC20FA02F001FAD7
:1085F00003FE40EA0E0021FA02F11444C1E600BF76
:1086000070B54FF0FF0C4CF4E06C1CEA11541DBF28
:108610001CEA135594EA0C0F95EA0C0F00F0DEF8F3
:108620002C4481EA030621EA4C5123EA4C5350EAD8
:10863000013518BF52EA033541F4801143F4801329
:1086400038D0A0FB02CE4FF00005E1FB02E506F0BA
:108650000042E0FB03E54FF00006E1FB03569CF00F
:10866000000F18BF4EF0010EA4F1FF04B6F5007F15
:1086700064F5407404D25FEA4E0E6D4146EB060687
:1086800042EAC62141EA55514FEAC52040EA5E5010
:108690004FEACE2EB4F1FD0C88BFBCF5E06F1ED8BA
:1086A000BEF1004F08BF5FEA500E50F1000041EBF1
:1086B000045170BD06F0004646EA010140EA02009E
:1086C00081EA0301B4EB5C04C2BFD4EB0C0541EAC0
:1086D000045170BD41F480114FF0000E013C00F3D5
:1086E000AB8014F1360FDEBF002001F0004170BDF9
:1086F000C4F10004203C35DA0C341BDC04F1140412
:10870000C4F1200500FA05F320FA04F001FA05F29D
:1087100040EA020001F0004221F0004110EBD3706A
:1087200021FA04F642EB06015EEA430E08BF20EA96
:10873000D37070BDC4F10C04C4F1200500FA04F339
:1087400020FA05F001FA04F240EA020001F00041CB
:1087500010EBD37041F100015EEA430E08BF20EA3E
:10876000D37070BDC4F1200500FA05F24EEA020E86
:1087700020FA04F301FA05F243EA020321FA04F0B5
:1087800001F0004121FA04F220EA020000EBD3706C
:108790005EEA430E08BF20EAD37070BD94F0000F6C
:1087A0000FD101F00046400041EB010111F4801FA0
:1087B00008BF013CF7D041EA060195F0000F18BF51
:1087C000704703F00046520043EB030313F4801F8D
:1087D00008BF013DF7D043EA0603704794EA0C0F47
:1087E0000CEA135518BF95EA0C0F0CD050EA41065D
:1087F00018BF52EA4306D1D181EA030101F00041DA
:108800004FF0000070BD50EA410606BF1046194601
:1088100052EA430619D094EA0C0F02D150EA01360D
:1088200013D195EA0C0F05D152EA03361CBF10464E
:1088300019460AD181EA030101F0004141F0FE41ED
:1088400041F470014FF0000070BD41F0FE4141F471
:10885000780170BD70B54FF0FF0C4CF4E06C1CEA71
:1088600011541DBF1CEA135594EA0C0F95EA0C0F26
:1088700000F0A7F8A4EB050481EA030E52EA0335E1
:108880004FEA013100F088804FEA03334FF0805502
:1088900045EA131343EA12634FEA022245EA11152F
:1088A00045EA10654FEA00260EF000419D4208BFE0
:1088B000964244F1FD0404F5407402D25B084FEA8D
:1088C0003202B61A65EB03055B084FEA32024FF439
:1088D00080104FF4002CB6EB020E75EB030E22BF96
:1088E000B61A754640EA0C005B084FEA3202B6EB56
:1088F000020E75EB030E22BFB61A754640EA5C0005
:108900005B084FEA3202B6EB020E75EB030E22BF94
:10891000B61A754640EA9C005B084FEA3202B6EB95
:10892000020E75EB030E22BFB61A754640EADC0054
:1089300055EA060E18D04FEA051545EA16754FEAB6
:1089400006164FEAC30343EA52734FEAC2025FEAD4
:108950001C1CC0D111F4801F0BD141EA00014FF063
:1089600000004FF0004CB6E711F4801F04BF014334
:108970000020B4F1FD0C88BFBCF5E06F3FF6AFAE50
:10898000B5EB030C04BFB6EB020C5FEA500C50F1E0
:10899000000041EB045170BD0EF0004E4EEA113163
:1089A00014EB5C04C2BFD4EB0C0541EA045170BD6A
:1089B00041F480114FF0000E013C90E645EA060EAE
:1089C0008DE60CEA135594EA0C0F08BF95EA0C0FDC
:1089D0003FF43BAF94EA0C0F0AD150EA01347FF424
:1089E00034AF95EA0C0F7FF425AF104619462CE7FB
:1089F00095EA0C0F06D152EA03353FF4FDAE10465E
:108A0000194622E750EA410618BF52EA43067FF4AE
:108A1000C5AE50EA41047FF40DAF52EA43057FF43E
:108A2000EBAE12E74FF0FF3C06E000BF4FF0010C49
:108A300002E000BF4FF0010C4DF804CD4FEA410CAD
:108A40007FEA6C5C4FEA430C18BF7FEA6C5C1BD07A
:108A500001B050EA410C0CBF52EA430C91EA030FFB
:108A600002BF90EA020F0020704710F1000F91EA58
:108A7000030F58BF994208BF90422CBFD8176FEA26
:108A8000E37040F0010070474FEA410C7FEA6C5CF4
:108A900002D150EA013C07D14FEA430C7FEA6C5CFB
:108AA000D6D152EA033CD3D05DF8040B704700BF27
:108AB0008446104662468C461946634600E000BF75
:108AC00001B5FFF7B7FF002848BF10F1000F01BD47
:108AD0004DF808EDFFF7F4FF0CBF012000205DF812
:108AE00008FB00BF4DF808EDFFF7EAFF34BF012097
:108AF00000205DF808FB00BF4DF808EDFFF7E0FF30
:108B000094BF012000205DF808FB00BF4DF808ED80
:108B1000FFF7CEFF94BF012000205DF808FB00BFE7
:108B20004DF808EDFFF7C4FF34BF012000205DF8C9
:108B300008FB00BF4FEA410C7FEA6C5C02D150EAAF
:108B4000013C0AD14FEA430C7FEA6C5C02D152EA45
:108B5000033C02D14FF0000070474FF00100704716
:108B60004FEA410212F5001215D211D56FF4787355
:108B7000B3EB625212D94FEAC12343F0004343EAF8
:108B8000505311F0004F23FA02F018BF40427047D3
:108B90004FF00000704750EA013005D111F000405D
:108BA00008BF6FF0004070474FF00000704700BFF3
:108BB0004FEA4102B2F1E04324BFB3F5001CDCF1FF
:108BC000FE5C0DD901F0004C4FEAC0024CEA507037
:108BD000B2F1004F40EB830008BF20F00100704766
:108BE00011F0804F21D113F13872BCBF01F0004069
:108BF000704741F480114FEA5252C2F11802C2F19B
:108C0000200C10FA0CF320FA02F018BF40F001001B
:108C10004FEAC1234FEAD32303FA0CFC40EA0C00CD
:108C200023FA02F34FEA4303CCE77FEA625307D10A
:108C300050EA01331EBF4FF0FE4040F44000704741
:108C400001F0004040F0FE4040F40000704700BFDB
:108C500053B94AB9002908BF00281CBF4FF0FF31A3
:108C60004FF0FF3000F07AB9ADF1080C6DE904CE99
:108C700000F006F8DDF804E0DDE9022304B07047F7
:108C80002DE9F0478C460D460446089E002B51D135
:108C90008A4217466DD9B2FA82FEBEF1000F0BD0A0
:108CA000CEF1200C01FA0EF520FA0CFC02FA0EF7B8
:108CB0004CEA050C00FA0EF44FEA174A250CBCFBEF
:108CC000FAF81FFA87F90AFB18CC45EA0C4508FBAD
:108CD00009F3AB420AD9ED1908F1FF3280F0238184
:108CE000AB4240F22081A8F102083D44ED1AA4B243
:108CF000B5FBFAF00AFB105544EA054400FB09F9FC
:108D0000A14509D9E41900F1FF3380F00A81A1459A
:108D100040F2078102383C44A4EB090440EA0840D1
:108D20000021002E61D024FA0EF400233460736019
:108D3000BDE8F0878B4207D9002E54D0002186E889
:108D400021000846BDE8F087B3FA83F1002940F01E
:108D50008E80AB4202D3824200F2FA80841A65EB25
:108D600003050120AC46002E3FD086E81010BDE878
:108D7000F08712B90127B7FBF2F7B7FA87FEBEF109
:108D8000000F34D1EB1B3A0C1FFA87FC0121B3FB17
:108D9000F2F8250C02FB183345EA03450CFB08F3F7
:108DA000AB4207D9ED1908F1FF3002D2AB4200F215
:108DB000D1808046ED1AA3B2B5FBF2F002FB10554C
:108DC00043EA05440CFB00FCA44507D9E41900F173
:108DD000FF3302D2A44500F2B8801846A4EB0C047D
:108DE00040EA08409DE731463046BDE8F087CEF1C5
:108DF000200405FA0EF307FA0EF720FA04F83A0CED
:108E000025FA04F448EA0308B4FBF2F14FEA1845E6
:108E100002FB11441FFA87FC45EA044501FB0CF3F1
:108E2000AB4200FA0EF409D9ED1901F1FF3080F0E0
:108E30008A80AB4240F2878002393D44EB1A1FFA28
:108E400088F5B3FBF2F002FB103345EA034500FB63
:108E50000CF3AB4207D9ED1900F1FF386FD2AB42EA
:108E60006DD902383D44EB1A40EA01418FE7C1F168
:108E7000200722FA07F88B4005FA01F448EA0303B9
:108E800020FA07FE4FEA134CFD404EEA040EB5FBF4
:108E9000FCF94FEA1E440CFB19551FFA83F844EA0B
:108EA000054509FB08F4AC4202FA01F200FA01FAA6
:108EB00008D9ED1809F1FF3043D2AC4241D9A9F1EC
:108EC00002091D442D1B1FFA8EFEB5FBFCF00CFBA6
:108ED00010554EEA054400FB08F8A04507D9E418F0
:108EE00000F1FF3529D2A04527D902381C4440EAB9
:108EF0000940A4EB0804A0FB02894C45C6464D4638
:108F000015D312D056B1BAEB0E0364EB050404FA84
:108F100007F7CB401F43CC40376074600021BDE8A9
:108F2000F0871846F8E69046E0E6C245EAD2B8EB8C
:108F3000020E69EB03050138E4E72846D7E740460F
:108F400091E78146BEE7014678E702383C4445E7B1
:108F5000084608E7A8F102083D442BE7704700BF28
:108F60004FF4F07070474FF48770704708B50122D6
:108F70004FF48071074800F09BFE4FF4FA7000F048
:108F800097F9054801F0DAFE0448BDE8084001F011
:108F9000D5BE00BF00080240DB160108E316010839
:108FA000044A1078C3B2012B4FF0000004BF1070C8
:108FB00018467047E917002010B5064B5C78987882
:108FC00000EB04200880D9781B7903EB0123138080
:108FD00010BD00BFA019002008B50A4A0A4B136053
:108FE0001B689847094B0A491A680C235343CA184F
:108FF00008201081102050810020C85005235360A4
:1090000008BD00BF30190020000000209C17002080
:1090100024190020034B1A680C235343024AD050F2
:10902000704700BF9C1700202419002008B5024B90
:109030001B689B6A984708BD301900202DE9FF4145
:1090400070B301282ED002282ED003282ED0042859
:109050002ED0184B184C052808BF1C46DFF8788026
:10906000164F174E0025D8F800200C2303FB027280
:10907000304651890191029405FB01F3118929229F
:109080004A4300923E3304220E4906F07FFA01352E
:10909000304601F053FE0D2DE5D104B0BDE8F0815E
:1090A000054CDBE7084CD9E7084CD7E7084CD5E777
:1090B000084CD3E71A170108EA1601082419002002
:1090C000F817002006170108F0160108F416010829
:1090D000FA160108FF1601089C1700202B4B70B5EB
:1090E0001D682B4E0C236B4386B0F258002A39D0F2
:1090F000012A39D0022A39D0032A39D0042A39D09A
:10910000052A244A18BF00220C2303FB05635C6870
:10911000002C31D0012C31D0022C31D0032C31D095
:10912000042C31D0052C1B4C18BF00240C2303FB4E
:1091300005656E89059100210292049103940196C0
:109140002989292206FB00F34A4300923E33042278
:109150001149124806F01AFA104806B0BDE87040EE
:1091600001F0ECBD0E4ACFE70E4ACDE70E4ACBE741
:109170000E4AC9E70E4AC7E7094CD7E7094CD5E7BD
:10918000094CD3E7094CD1E7094CCFE79C170020E5
:10919000241900201A17010820170108F8170020C9
:1091A000EA160108F0160108F4160108FA1601087B
:1091B000FF160108024B034A1A600020704700BFE7
:1091C000A01700203800002073B5104E336800242B
:1091D0000546ADF80440ADF806401B6920469847A7
:1091E00080B2288078B1336820465B690DF10602B1
:1091F00001A99847BDF804306B80BDF80630AB80FC
:10920000204602B070BD0120FBE700BFA017002080
:1092100038B50E4A0E4B054618784FF47A73B3FBF7
:10922000F0F31068B0FBF3F000F0C4FA044658B94C
:109230000F2D09D8024629464FF0FF3000F078FA8A
:10924000044B20461D6038BD012038BDAC15002000
:10925000600000206400002008B50B4B1A6842F43F
:1092600000721A601A6842F480621A601A6842F446
:1092700080721A60032000F049FA0020FFF7C8FF4F
:1092800004F062FA002008BD003C0240034A044B8F
:1092900011681B780B441360704700BF341900201D
:1092A00060000020014B1868704700BF341900208F
:1092B00038B50446FFF7F6FF631C1CBF054B1B784F
:1092C000054618BFE418FFF7EDFF401B8442FAD8AB
:1092D00038BD00BF6000002038B50446002800F00B
:1092E0009B80056C25B904F04BFA656484F83C500A
:1092F000236CDB0600F18E80236C23F4885323F06B
:10930000020343F002032364444B5A6822F44032C0
:109310005A605A6861680A435A60236821695A682A
:1093200022F480725A605A6842EA01225A605A68EE
:10933000A16822F040725A605A680A435A609A68DB
:10934000E16822F400629A609A680A439A6034499C
:10935000A26A8A4252D0996821F070619960996836
:109360000A439A609A68E16A22F040529A609A68C9
:109370000A439A609A68217E22F002029A609A68F3
:1093800042EA41029A6094F82020002A3ED05A68AE
:10939000616A42F400625A605A6822F460425A607C
:1093A0005A68013942EA41325A60DA6AE16922F4C4
:1093B0007002DA62DA6A013942EA0152DA629A68C4
:1093C00094F8301022F400729A609A6842EA4122BE
:1093D0009A609A68616922F480629A609A680020B3
:1093E00042EA81229A606064236C23F0030343F015
:1093F00001032364002384F83C3038BD9A6822F0CE
:1094000070629A609A6822F04052B2E75A6822F479
:109410000062C9E70120EDE7012038BD00230140CB
:109420000100000F82B00023019390F83C30012B23
:109430004ED0012380F83C3003689A68D10705D5E7
:109440009A68D20714D4002002B070479A68214964
:1094500042F001029A60204A1268B2FBF1F202EB7C
:1094600042020192019A002AEAD0019A013AF8E7F1
:10947000026C22F4E06222F0010242F48072026483
:109480005A68510541BF026C22F4405242F48052A6
:109490000264026C12F480521CBF426C22F006027D
:1094A0004264002280F83C206FF022021A600B4ACE
:1094B0005268D20608D1986810F04050C3D19A681B
:1094C00042F080429A60BFE7054A9342BBD1F2E77F
:1094D0000220B9E740420F00AC15002000230140F4
:1094E0000020014090F83C30012B17D0012380F878
:1094F0003C3003689A6822F001029A609B68DB079F
:1095000007D4036C23F4885323F0010343F00103D1
:109510000364002380F83C301846704702207047EF
:1095200003689A6870B5560504460D460BD59B68CE
:10953000D80508D5236C43F020032364002384F866
:109540003C30012070BDFFF7ADFE064623681A6867
:1095500092070CD56FF012021A60226C42F400726E
:1095600022649A6812F0405F13D0002070BD691C1D
:10957000EDD045B9236C43F004032364002384F841
:109580003C30032070BDFFF78DFE801B8542DDD28D
:10959000F0E7227E002AE8D1DA6A12F4700F02D0D6
:1095A0009B685B05E1D4236C23F480732364206CF7
:1095B00010F48050D9D1236C43F00103236470BDB3
:1095C0000368D86C70470000F7B50023019390F84A
:1095D0003C30012B6ED00D6804688A680123092D88
:1095E00080F83C30AEB22AD906EB4603E7681E3B52
:1095F0004FF0070E0EFA03FE27EA0E07E760E76852
:1096000002FA03F33B43E3604A68062A4FEA820307
:1096100025D81344676B591F1F238B4027EA030388
:109620006363626B06FA01F111436163324B9C4242
:1096300034D0002380F83C30184603B0F0BD2769D1
:1096400005EB45034FF0070E0EFA03FE27EA0E075F
:109650002761276902FA03F33B432361D4E70C2A0D
:109660000ED81344216BA3F123021F23934021EA58
:1096700003032363236B06FA02F21A432263D5E73E
:109680001344E16A413B1F229A4021EA0202E2624E
:10969000E26A06FA03F11143E162C7E7122D0BD12A
:1096A000164B5A6822F400025A605A6842F480024B
:1096B0005A60BEE70220C0E7114B9D4201D0112D38
:1096C000B7D10E4B5A6822F480025A605A6842F4AD
:1096D00000025A600A4B9D42ABD10A4B0A4A1B68F2
:1096E000B3FBF2F20A2353430193019B002BA0D05A
:1096F000019B013BF8E700BF00200140002301402F
:1097000012000010AC15002040420F00074AD36839
:1097100023F4E0631B041B0C43F0BF63000243F41B
:10972000003300F4E0600343D360704700ED00E0D5
:10973000174B30B5DC68C4F30224C4F10703251DC0
:10974000042B28BF0423062D4FF0010505FA03F36F
:1097500003F1FF338CBF033C00241940A14005FAFC
:1097600004F4013C2240002842EA01024FEA0212BE
:10977000ADBF00F1604000F00F00064B00F5614006
:10978000B5BFD2B2D2B21A5480F8002330BD00BFA8
:1097900000ED00E014ED00E0002808DB42090123A1
:1097A00000F01F0003FA00F0014B43F8220070475D
:1097B00000E100E00138B0F1807F0AD2064B074A91
:1097C0005860F02182F823100020072298601A6068
:1097D00070470120704700BF10E000E000ED00E09E
:1097E0000368DAB223F47F7323F003031821103ADD
:1097F000B2FBF1F20449032A88BF0433895C836514
:10980000C165806D704700BF4517010870B50446FB
:10981000FFF748FD0546002C71D0002384F8343052
:109820002268022384F83530136823F001031360A3
:1098300021680B68D8073CD40B68324D6268A06978
:109840001D40A3681343E26813432269134362690E
:109850001343E26903431343226A1343626A042AEF
:1098600043EA050301BF266BE56A35432B430B60D2
:109870004B69042A23F0070343EA02030BD1A26ACF
:10988000E56A13433DB1F8B9012A2DD001D3022A6C
:1098900001D1EA012BD44B612046FFF7A1FFE26D15
:1098A0003F239340836000200123606584F83530B6
:1098B00070BDFFF7F7FC401B0528B9D9202363656D
:1098C000032084F8350070BDB0F5005F13D1032A82
:1098D000E1D801A050F822F0EF9800089398000812
:1098E000EF980008E9980008B5F1C07FD3D1402374
:1098F00063650120E5E7022AF9D9032AC8E70120B8
:1099000070BD00BF3F8010F070B590F83440012C5E
:1099100036D0012480F8344090F83540866D012C13
:109920004FF000054FF0020428D180F8354004685C
:109930004565256825F48025256063608368402B94
:109940000EBFA260A160E260C26D08BFE1603F236C
:109950009340B360236843F016032360636943F0C8
:1099600080036361036C1BB1236843F00803236029
:10997000236843F001032360002070BD80F8345059
:10998000022070BDF7B5002301935A4B856D1F6807
:10999000C36D2E6808229A40164204460CD0016816
:1099A0000868400708D5086820F004000860AA602D
:1099B000626D42F00102626501229A40164208D0AF
:1099C00021684969090641BFAA60626D42F002023E
:1099D000626504229A40164208D021680968880707
:1099E00041BFAA60626D42F00402626510229A4093
:1099F000164210D02368196809070CD5AA601A68A6
:109A0000500335D51B68190301D4236C00E0A36C07
:109A10000BB120469847E16D20228A40164238D08B
:109A200023681868C60634D5AA6094F83520052A3C
:109A30001A6825D122F016021A605A6922F08002B3
:109A40005A61226C0AB9A26C1AB11A6822F0080293
:109A50001A603F238B40AB60002384F8343001232D
:109A600084F83530236D0BB12046984703B0F0BD24
:109A70001A68D2055EBF1A6822F008021A60C4E7AD
:109A8000500328D51B68190332D4636C0BB12046F0
:109A90009847636D002BE9D0636DDA0719D505236C
:109AA000226884F83530136823F0010313604FF403
:109AB0001653B7FBF3F7019B01339F42019302D387
:109AC0001368DB07F7D4002384F83430012384F8CB
:109AD0003530E36CC7E71A6812F4807208D1196850
:109AE00021F010011960012384F8342084F8353006
:109AF000E36BCBE7AC1500202DE9F04F85B00B6888
:109B0000DFF89C81644A01934FF001090023019C16
:109B100009FA03F707EA0406B74240F0AD804C6843
:109B200024F0100ABAF1020F16D14FEAD30C00EB61
:109B30008C0C03F0070BDCF820504FEA8B0B4FF036
:109B40000F0E0EFA0BFE25EA0E0E0D6905FA0BF547
:109B500045EA0E05CCF820504FEA430C0325D0F817
:109B600000B005FA0CF5ED4304F0030E0BEA050B0B
:109B70000EFA0CFE0AF1FF3A4EEA0B0EBAF1010F93
:109B80000095C0F800E015D8D0F808E005EA0E0E00
:109B9000CD6805FA0CFA4AEA0E0EC0F808E0D0F8D3
:109BA00004E02EEA0707C4F3001E0EFA03FE4EEA95
:109BB00007074760C768009D3D408F6807FA0CF7AC
:109BC0003D43C560E50057D54FF0000BCDF80CB014
:109BD000D8F84470314D47F48047C8F84470D8F83D
:109BE000447007F480470397039F23F0030707F1AE
:109BF000804707F59C3703F0030CD7F808A04FEA1D
:109C00008C0C4FF00F0E0EFA0CFEA8422AEA0E0E34
:109C100039D005F58065A84237D005F58065A842A2
:109C200035D005F58065A84233D005F58065A8429A
:109C300014BF0725042505FA0CF545EA0E05BD609D
:109C40001568F74314F4803F0CBF3D403543156061
:109C5000556814F4003F0CBF3D403543556095688E
:109C600014F4801F0CBF3D4035439560D568A402B5
:109C700054BF3D403543D5600133102B7FF447AFCF
:109C800005B0BDE8F08F5D46D5E70125D3E7022595
:109C9000D1E70325CFE700BF003C014000000240B0
:109CA000003802400369194214BF012000207047A8
:109CB0000AB1816170470904FBE7000008B5044B55
:109CC0005969014202D0586100F03CFD08BD00BF57
:109CD000003C01402DE9F341044618B9012002B0CF
:109CE000BDE8F0810368DD0710D42368980758D4D5
:109CF00023681A0700F19A8023685B0700F1B88097
:109D0000A269002A40F019810020E8E7A64B9A6872
:109D100002F00C02042A07D09A6802F00C02082A0A
:109D20000AD15B68590207D59F4B1B689A03DCD5A3
:109D30006368002BD9D1D1E763689B4DB3F5803FB1
:109D400011D12B6843F480332B60FFF7ABFA964DAB
:109D500006462B689B03C8D4FFF7A4FA801B64282F
:109D6000F7D90320BBE7B3F5A02F04D12B6843F448
:109D700080232B60E5E72A6822F480322A602A6873
:109D800022F480222A60002BDFD1FFF78BFA0646EF
:109D90002B689F03A9D5FFF785FA801B6428F7D9A4
:109DA000DFE7814B9A6812F00C0F07D09A6802F037
:109DB0000C02082A11D15B685E020ED47A4B1A6835
:109DC000950702D5E268012A88D11A68216922F034
:109DD000F80242EAC1021A608AE7E268734BB2B144
:109DE00001221A60FFF75EFA6F4D06462B6898074E
:109DF00007D52B68226923F0F80343EAC2032B60DE
:109E000076E7FFF74FFA801B0228EFD9A9E71A601F
:109E1000FFF748FA644D06462B6899077FF568AF4F
:109E2000FFF740FA801B0228F6D99AE76269604B77
:109E30007AB101221A60FFF735FA5B4D06466B6F67
:109E40009F073FF559AFFFF72DFA801B0228F6D97F
:109E500087E71A60FFF726FA534D06466B6F98079F
:109E60007FF54AAFFFF71EFA801B0228F6D978E784
:109E70004D4B1A6C12F0805228D101921A6C42F0AC
:109E800080521A641B6C03F080530193019B0126DE
:109E9000484D2B68D9051BD5A368434D012B27D10D
:109EA0002B6F43F001032B67FFF7FCF93E4D07468C
:109EB00041F288382B6F9B0739D5002E3FF420AF35
:109EC000394A136C23F08053136419E70026DFE747
:109ED0002B6843F480732B60FFF7E4F907462B6887
:109EE000DA05D9D4FFF7DEF9C01B0228F7D938E725
:109EF000052B04D12B6F43F004032B67D0E72A6FA7
:109F000022F001022A672A6F22F004022A67002B3E
:109F1000CAD1FFF7C7F941F2883807462B6F980777
:109F2000CBD5FFF7BFF9C01B4045F7D919E7FFF7BD
:109F3000B9F9C01B4045BDD913E71B4DAB6803F011
:109F40000C03082B3FF4CAAE1B4E0023022A3360D9
:109F500034D1FFF7A7F907462B6899011ED4226A6E
:109F6000E3691343626A43EA8213E26A43EA0263E3
:109F7000A26A0D4C5208013A43EA02436B60012386
:109F80003360FFF78FF9054623689A013FF5BCAEB1
:109F9000FFF788F9401B0228F6D9E2E6FFF782F9BD
:109FA000C01B0228D8D9DCE6003802400000474236
:109FB000800E47420070004060004742FFF772F990
:109FC00004462B689B017FF59FAEFFF76BF9001BE2
:109FD0000228F6D9C5E600BF134908B58B6803F01F
:109FE0000C03042B03D0082B03D0104808BD1048E5
:109FF00008BD4A684B68496813F4800314BF0C48D5
:10A000000A48C1F3881118BF002302F03F02A1FBE8
:10A010000001FEF71DFE044B5B68C3F301430133EF
:10A020005B00B0FBF3F008BD003802400024F400F0
:10A0300000127A002DE9F0410D46044610B90120C6
:10A04000BDE8F081444B1A6802F00F028A4228D31F
:10A0500021688F072DD4C80740D43F4B1A6802F0FF
:10A060000F02954266D3226851076CD4130707D5B7
:10A070003A4A2169936823F4604343EAC103936039
:10A08000FFF7AAFF354B364A9B68C3F30313D35C33
:10A09000D840344B18600020FFF7BAF80020BDE824
:10A0A000F081CAB21A701B6803F00F039942C6D13F
:10A0B000CEE72A4B11F0040F1EBF9A6842F4E0521B
:10A0C0009A600E0742BF9A6842F460429A609A68AA
:10A0D000A06822F0F00202439A60BCE762681F4B5E
:10A0E000012A1DD11B6813F4003FA8D01B4EB36892
:10A0F00023F003031343B360FFF7D4F841F2883829
:10A100000746B368626803F00C03B3EB820FA4D078
:10A11000FFF7C8F8C01B4045F3D90320BDE8F08124
:10A12000911E01291B6802D813F0007FDDE713F0B0
:10A13000020FDAE7EAB21A701B6803F00F039D42C0
:10A140007FF47DAF8FE70549E0688B6823F4E05327
:10A1500003438B608AE700BF003C024000380240A6
:10A1600088260108AC150020044B054A9B68C3F300
:10A170008223D35C034A1068D840704700380240FD
:10A1800098260108AC150020044B054A9B68C3F3D0
:10A190004233D35C034A1068D8407047003802400D
:10A1A00098260108AC1500200368DA6822F4907242
:10A1B000DA605A6922F001025A61202380F83A30AD
:10A1C000704700002DE9F0470668C2683369C1692D
:10A1D00023F4405313433361044683680069F268F3
:10A1E0000343606922F41642034322F00C020B433E
:10A1F0001343F3607369A26923F440731343B1F509
:10A20000004F73617A4B7CD19E4203D003F580638B
:10A210009E4244D1FFF7B8FF192505FB00F36068A3
:10A220004FF064094000B3FBF0F3B3FBF9F34FEADE
:10A230000318FFF7A9FF636868435B00B0FBF3F7FF
:10A24000FFF7A2FF636868435B00B0FBF3F3B3FB67
:10A25000F9F309FB1373DB003233B3FBF9F35B0053
:10A2600003F4F877FFF790FF626868435200B0FB91
:10A27000F2FAFFF789FF636868435B00B0FBF3F312
:10A28000B3FBF9F309FB13A3DB003233B3FBF9F3A0
:10A2900003F0070343443B44B360BDE8F087FFF796
:10A2A00063FF192505FB00F360684FF06409400067
:10A2B000B3FBF0F3B3FBF9F34FEA0318FFF754FFD6
:10A2C000636868435B00B0FBF3F7FFF74DFF63681B
:10A2D00068435B00B0FBF3F3B3FBF9F309FB1373C3
:10A2E000DB003233B3FBF9F35B0003F4F877FFF7DD
:10A2F0003BFF626868435200B0FBF2FAFFF734FF9D
:10A30000B9E79E4202D03B4B9E4240D1FFF73CFF53
:10A31000676819254FF0640905FB00F3BF00B3FB24
:10A32000F7F3B3FBF9F31F01FFF72EFF63686843F0
:10A330009B00B0FBF3F8FFF727FF636868439B00BF
:10A34000B0FBF3F3B3FBF9F309FB13831B013233C7
:10A35000B3FBF9F303F0F008FFF716FF62686843F8
:10A360009200B0FBF2FAFFF70FFF636868439B00AF
:10A37000B0FBF3F3B3FBF9F309FB13A31B01323377
:10A38000B3FBF9F303F00F0343EA080383E7FFF796
:10A39000EBFE676819254FF0640905FB00F3BF0069
:10A3A000B3FBF7F3B3FBF9F31F01FFF7DDFE6368BF
:10A3B00068439B00B0FBF3F8FFF7D6FE6368684381
:10A3C0009B00B0FBF3F3B3FBF9F309FB13831B0111
:10A3D0003233B3FBF9F303F0F008FFF7C5FE626810
:10A3E00068439200B0FBF2FAFFF7BEFEBDE700BF84
:10A3F0000010014000140140F8B504460E4617460F
:10A400001D4621680B6836EA030301D10020F8BD20
:10A410006B1CF7D095B92368DA6822F4D072DA6041
:10A420005A6922F001025A61202384F8393084F8F5
:10A430003A30002384F838300320F8BDFEF732FFAD
:10A44000C01B8542DDD2E6E710B5044640B390F864
:10A45000393003F0FF021BB980F8382003F0C2F94D
:10A460002268242384F83930D36823F40053D3605E
:10A470002046FFF7A7FE23681A6922F490421A616A
:10A480005A6922F02A025A61DA6842F40052DA600C
:10A4900000202023E06384F8393084F83A3010BD7E
:10A4A000012010BD2DE9F0411F4690F83930202BD6
:10A4B00004460D4690464FD100294AD0002A48D084
:10A4C00090F83830012B47D0012380F83830002332
:10A4D000C363212380F83930FEF7E4FEA4F824801A
:10A4E0000646A4F82680E38C9BB26BB93B46324605
:10A4F00040212046FFF780FFB0B9202384F839308F
:10A5000084F83800BDE8F081E38C013B9BB2E38422
:10A51000A368B3F5805F32463B464FF0800120468A
:10A520000ED1FFF769FF10B10320BDE8F0812B8841
:10A530002268C3F308035360236943B90235D2E7A5
:10A54000FFF75AFF0028EFD123682A785A600135B7
:10A55000C9E70120BDE8F0810220BDE8F0810000DC
:10A56000134690F83A20202A73B5054638D10029C1
:10A5700034D0002B32D090F83820012A30D001227C
:10A58000002480F838202222C4638162838580F809
:10A590003A20406B134AC2632E68134A0264134A7E
:10A5A000C26404650A46311DFFF7AEF92B680194B9
:10A5B0001A6801925A680192019ADA6885F838405F
:10A5C00042F48072DA605A6942F001025A615A69B3
:10A5D00042F040025A61204602B070BD0120FBE704
:10A5E0000220F9E7F1A500082BA6000837A600080D
:10A5F00008B50368826B1B6813F4807310D1D38590
:10A600001368D96821F48071D960596921F001017A
:10A610005961596921F040015961202382F83A308B
:10A62000104600F02FF808BD704708B5806BFFF7A3
:10A63000FBFF08BD7047816B08B50B685A6991F83C
:10A64000390021280AD1120608D50022CA84DA6806
:10A6500022F0C002DA60202281F839205B6991F88B
:10A660003A20222A06D15B0604D50023CB85084672
:10A67000FFF79AFDCB6B43F01003CB630846FFF75F
:10A68000D9FF08BDF8B5234A036893423AD1224B5B
:10A69000224D1A7802F0FF04C2B90122204F214E48
:10A6A0001A702A5D3946304604F070FF0134304696
:10A6B00000F034FB0A2CF4D11B4800F02FFB1749A3
:10A6C0001A480922BDE8F840FFF74ABF144F154E5B
:10A6D00000242A5D3946304604F058FF01343046E4
:10A6E00000F01CFB092CF4D10F4800F017FB104BB5
:10A6F00001221A700F4B2A681A606A685A602A7A17
:10A700001A72F8BD0C4A934203D101220B490C483E
:10A71000D8E7F8BD00100140E81700207D1B00209D
:10A720004D170108F8170020551E0108341B0020A2
:10A73000E9170020A0190020004400407C1B0020E5
:10A74000941B0020B0F5805F08B5014606D104488F
:10A75000FFF7A8FA10B9034B01221A7008BD00BF19
:10A7600000040240A71700202DE9F04105462DED19
:10A77000028B002864D0022800F09E8003280CBFC2
:10A780004FF00A084FF000080026674F3446464550
:10A7900059D1B4FBF6F407EE904A9FED647AF8EED7
:10A7A000677AC7EE876A16EE900AFDF7D5FE56A3C4
:10A7B000D3E90023FDF724FFFEF7FAF908EE100AAB
:10A7C0000DB1032D50D1F0EE087AB4EEE78AF1EE28
:10A7D00010FA00F38E80F3EE047A68EE277A17EE13
:10A7E000900AFDF7B9FE044618EE100A0D46FDF773
:10A7F000B3FE02460B4644A1D1E90001FDF74CFD32
:10A8000002460B4620462946FEF724F80022484B14
:10A81000FDF742FD3EA3D3E90023FDF7F1FEFEF76D
:10A82000C7F900EE100ADFED437AB5EE400AF1EE0B
:10A8300010FA48BFB0EE670ABDEC028BBDE8F081AC
:10A840004FF04608A0E73846FEF7ECFD4FF4FA71EA
:10A850003846FEF765FE3846FEF7B2FE0444384639
:10A86000FEF740FE013692E7022D45D1FDF774FE5A
:10A8700029A3D3E9002306460F46FEF751F9002825
:10A880003DD1DFED2D7A68EE277A17EE900AFDF7BD
:10A8900063FE324604460D463B461BA1D1E900014A
:10A8A000FDF7FAFC02460B4620462946FDF7D2FF8B
:10A8B0001BA3D3E90023B0E7002240211F48FFF784
:10A8C000F7F9002220211D48FFF7F2F90120FEF7D9
:10A8D000EFFC012240211948FFF7EAF9012220216B
:10A8E0001648FFF7E5F90120FEF7E2FC4FF03C08BF
:10A8F0004AE79FED130A9FE79FED0E0A9CE79FED45
:10A90000110A99E7AFF300806666666666660A40DC
:10A91000666666666666E63F7B14AE47E17A094086
:10A920000AD7A3703D0AE73F841A002000F07F4554
:10A9300000005540000000000024F44800040240DC
:10A94000000048438096984B2DE9F04F2DED028B87
:10A950000FF21C29D9E90089874EDFF824A283B0C1
:10A960000024002C40F0B280012220213046FFF765
:10A970009FF9224640213046FFF79AF9142501201D
:10A98000DFF820B2FEF794FC0027372358460193E6
:10A99000FEF748FD4FF4FA715846FEF7C1FD5846E0
:10A9A000FEF70EFE07445846FEF79CFD019B013B57
:10A9B000ECD13723B7FBF3F707EE907A9FED6F7A70
:10A9C000F8EEE77AC7EE876A16EE900AFDF7C4FD47
:10A9D00042464B46FDF714FEFEF7EAF808EE100A71
:10A9E000F0EE087AB4EEE78AF1EE10FA02D4013400
:10A9F000062CB6D1012240215F48FFF759F9012208
:10AA000080215F48FFF754F901224FF480715D48BF
:10AA1000FFF74EF901224FF480615748FFF748F9DC
:10AA2000012210215448FFF743F901222021524806
:10AA3000FFF73EF9052C0BD118EE100AFDF78CFD3F
:10AA400049A3D3E90023FEF761F8002840F089808C
:10AA500007EE905AF8EEE77A67EE887A17EE900ADA
:10AA6000FDF77AFD044618EE100A0D46FDF774FD59
:10AA700002460B463EA1D1E90001FDF70DFC02465E
:10AA80000B4620462946FDF7E5FE00223E4BFDF72A
:10AA900003FCFEF78DF89FED3D7A07EE900AF4EE89
:10AAA000C77AF1EE10FA03DD9FED397A77EEC77AB7
:10AAB000F5EE407A9FED370AF1EE10FA58BFB0EE8E
:10AAC000670A03B0BDEC028BBDE8F08F012C0BD1FF
:10AAD000224640213046FFF7EBF800228021504605
:10AAE000FFF7E6F8C8254AE7022C4FF001020CD127
:10AAF00080215046FFF7DCF800224FF48071214896
:10AB0000FFF7D6F84FF4FA6539E7032C0DD14FF46F
:10AB100080711C48FFF7CCF800224FF4806130466A
:10AB2000FFF7C6F844F6206529E7042C0BD14FF453
:10AB300080613046FFF7BCF8002210213046FFF755
:10AB4000B7F8154D1BE710213046FFF7B1F800228A
:10AB500020213046FFF7ACF80120FEF7A9FB0F4D8E
:10AB60000DE7DFED0F7A9FE77B14AE47E17A0940EE
:10AB70006666666666660A400004024000F07F452D
:10AB80000008024000000240000054408096184B2C
:10AB90000024F44900000000400D030020A107003C
:10ABA0008096984B841A002010B5094C0122402150
:10ABB0002046FFF77DF80120FEF77AFB20460022B1
:10ABC0002021FFF775F80120BDE81040FEF770BBAB
:10ABD00000040240022810B502460C4618D1012993
:10ABE00003D1BDE81040FFF7DFBFF1B901222021FA
:10ABF0000E48FFF75DF80120FEF75AFB22460B488E
:10AC00004021FFF755F80120BDE81040FEF750BB8A
:10AC100001280AD1012906D1002220210348BDE8DC
:10AC20001040FFF745B80029F7D010BD00040240DE
:10AC300030B595B03022002108A803F001FF0021B3
:10AC4000142203A803F0FCFE00251C4B01951A6C8E
:10AC500042F080521A641B6C03F080530193019BF5
:10AC6000174B02951A6842F440421A601B6803F4BD
:10AC700040430293029B012308934FF4A0230993BE
:10AC80004FF480030F93042310934823022411935D
:10AC900008A8032313930E941294FFF71BF80F23B5
:10ACA000039321464FF4805303A80494059506931B
:10ACB0000795FFF7BFF915B030BD00BF003802405F
:10ACC0000070004073B50B780A2B0C46154609D16D
:10ACD00002A90D2301F8013D01224FF6FF730D4833
:10ACE000FFF7E0FB4FF6FF73AAB221460948FFF7D2
:10ACF000D9FB094B1B78012B03D12646331B9D4200
:10AD000002DC284602B070BD16F8010B03F0DAFC35
:10AD1000F4E700BF941B0020E017002010B50446A4
:10AD2000FDF75EFA2146C2B24FF0FF330248BDE89C
:10AD30001040FFF7B7BB00BF941B002073B5114B49
:10AD4000114C1A889B78ADF804208DF80630064621
:10AD5000FDF746FA31460546204604F04AFC01A9B3
:10AD6000204604F037FCEAB24FF6FF730332214667
:10AD70000648FFF797FB052002B0BDE87040FEF7DC
:10AD800097BA00BFD8160108B4190020341B002060
:10AD9000F8B50D4E07460D460024BC4200DBF8BD59
:10ADA00001224FF400713046FEF782FF2846FEF77D
:10ADB0007FFA00224FF400713046FEF779FF2846F3
:10ADC000FEF776FA0134E8E70008024038B5054698
:10ADD00005200C46FEF732F9012D1FD122492348E8
:10ADE00004F007FC2148FFF7A9FF21491F4804F0A0
:10ADF00000FC1E48FFF7A2FF012C22D11D491B4871
:10AE000004F0F7FB1948FFF799FF1B49174804F0B6
:10AE1000F0FB1648BDE83840FFF790BF45B9174929
:10AE2000124804F0E6FB1148FFF788FF1449DDE7FC
:10AE300014490E4804F0DDFB0C48FFF77FFF124970
:10AE4000D4E744B91149094804F0D3FB0748FFF798
:10AE500075FF0F49DAE70F49044804F0CAFB0348BD
:10AE6000FFF76CFF0C49D1E7061A0108B41900205E
:10AE7000351A01080E1B01083E1B0108601A010863
:10AE80008D1A0108B61A0108E41A01086A1B0108A4
:10AE9000981B0108C21B0108F11B010873B502AC25
:10AEA000002644F8046D042221460C2002F07AFFAB
:10AEB0009DF806309DF80720AA4D1B0403EB0263A2
:10AEC0009DF8042013449DF8052003EB0223022B78
:10AED0002B6019D9042221460C20019602F022FF92
:10AEE000042221460C2002F05DFF9DF806309DF8FB
:10AEF00007201B0403EB02639DF8042013449DF814
:10AF0000052003EB02232B6004222146102002F0CF
:10AF100049FF9DF806309DF80720934D1B0403EB75
:10AF200002639DF8042013449DF8052003EB0223DF
:10AF3000012B2B601AD900230422214610200193F3
:10AF400002F0F0FE04222146102002F02BFF9DF8B3
:10AF500006309DF807201B0403EB02639DF80420D4
:10AF600013449DF8052003EB02232B6004222146A5
:10AF7000142002F017FF9DF806309DF807207B4D46
:10AF80001B0403EB02639DF8042013449DF8052085
:10AF900003EB0223012B2B601AD900230422214644
:10AFA0001420019302F0BEFE04222146142002F078
:10AFB000F9FE9DF806309DF807201B0403EB0263A1
:10AFC0009DF8042013449DF8052003EB02232B6019
:10AFD00004222146182002F0E5FE9DF806309DF877
:10AFE0000720634D1B0403EB02639DF80420134408
:10AFF0009DF8052003EB0223012B2B601AD90023B7
:10B00000042221461820019302F08CFE04222146DE
:10B01000182002F0C7FE9DF806309DF807201B049B
:10B0200003EB02639DF8042013449DF8052003EB15
:10B0300002232B60042221461C2002F0B3FE9DF85F
:10B0400006309DF807204B4D1B0403EB02639DF86F
:10B05000042013449DF8052003EB0223012B2B60F1
:10B060001AD90023042221461C20019302F05AFE23
:10B07000042221461C2002F095FE9DF806309DF822
:10B0800007201B0403EB02639DF8042013449DF882
:10B09000052003EB02232B6004222146202002F02E
:10B0A00081FE9DF806309DF80720334D1B0403EB0D
:10B0B00002639DF8042013449DF8052003EB02234E
:10B0C000012B2B601AD90023042221462020019352
:10B0D00002F028FE04222146202002F063FE9DF8A3
:10B0E00006309DF807201B0403EB02639DF8042043
:10B0F00013449DF8052003EB02232B600422214614
:10B10000302002F04FFE9DF806309DF807201B4DC1
:10B110001B0403EB02639DF8042013449DF80520F3
:10B1200003EB0223012B2B601AD9002304222146B2
:10B130003020019302F0F6FD04222146302002F077
:10B1400031FE9DF806309DF807201B0403EB0263D7
:10B150009DF8042013449DF8052003EB02232B6087
:10B1600002B070BDD4170020BC170020C01700200B
:10B17000B0170020C8170020B8170020B41700200F
:10B1800008B5FFF78BFE0F4B1B68B3B90E48FFF7EE
:10B19000D5FD0E4B0E491A680E4804F0F7F90D481C
:10B1A000FFF7CCFD0C4B0D491A680A4804F0EEF984
:10B1B0000848BDE80840FFF7C1BD012BE9D10848A8
:10B1C000E5E700BFC0170020D61701087000002077
:10B1D000FD170108B41900206C00002009180108AF
:10B1E000E91701082DE9F74302AD002045F8040DE9
:10B1F0000422294602F0D6FD9DF806209DF807306E
:10B20000684CDFF8EC816849684F694EDFF8E491DB
:10B21000120402EB03629DF804301A449DF80530D5
:10B22000204602EB0322C8F8002004F0AFF92046C4
:10B23000FFF784FD29460422282002F0B3FD9DF883
:10B2400006209DF807305B49120402EB03629DF86B
:10B2500004301A449DF80530204602EB03223A6080
:10B2600004F094F92046FFF769FD3B68D8F8002008
:10B2700051491A44514B20461A6004F087F9204680
:10B28000FFF75CFD04222946104602F08BFD9DF875
:10B2900006209DF807304A49120402EB03629DF82C
:10B2A00004301A449DF80530204602EB0322326038
:10B2B00004F06CF92046FFF741FD294604222C20BA
:10B2C00002F070FD9DF806209DF807303D491204FC
:10B2D00002EB03629DF804301A449DF805302046C5
:10B2E00002EB0322C9F8002004F050F92046FFF7D2
:10B2F00025FDD9F80030326833491A44334B2046D3
:10B300001A6004F043F92046FFF718FD3368D8F8B7
:10B3100000202F491A442F4B20461A6004F036F9BA
:10B320002046FFF70BFDD9F800303A682A491A4445
:10B330002A4B20461A6004F029F92046FFF7FEFC4C
:10B340003B68D8F8002026491A4433681A44D9F8D3
:10B3500000301A44234B20461A6004F017F92046A7
:10B36000FFF7ECFC29460422242002F01BFD9DF887
:10B3700006209DF807301C49120402EB03629DF879
:10B3800004301A449DF8053002EB0322174B204687
:10B390001A6004F0FBF82046FFF7D0FC03B0BDE8CC
:10B3A000F08300BFB419002015180108D41B002039
:10B3B000381900202418010833180108E01B002068
:10B3C0004218010851180108601801087C1A002071
:10B3D0006F180108DC1B00207E180108D81B002014
:10B3E0008D180108781B00209C180108AC1900205A
:10B3F000881B00202C1B002070B5AF4D2846FDF7A0
:10B40000E3FE0446002840F05681AC4E3378702BA2
:10B4100040F046810A210120FFF7BAFC7379312BF5
:10B4200013D1A74D042229462C60204602F07AFC55
:10B430002C6004222946282002F074FC0922A1492C
:10B44000A148BDE87040FFF78BB8322B0BD19C4D63
:10B450000422294610462C6002F064FC2C60042271
:10B4600029462C20E8E7332B04D1954904220C60AF
:10B470000820E1E7592B04D1914904220C602420D3
:10B48000DAE7342B0CD18E4904220C200C704C705E
:10B490008C70CC7002F046FC8C48FFF74FFCCDE777
:10B4A000352B0BD18649012304220C200B704C70E4
:10B4B0008C70CC7002F036FC8548EEE7362B0BD151
:10B4C0007F49022304220C200B704C708C70CC70CE
:10B4D00002F028FC7F48E0E7372B08D178490023A9
:10B4E0000B600422102002F01DFC7B48D5E7382BAE
:10B4F0000CD1734901230B7000234B708B70CB7000
:10B500000422102002F00EFC7448C6E7392B0BD140
:10B510006B490023042214200B704B708B70CB708E
:10B5200002F000FC6E48B8E7412B0CD164490123BE
:10B530000B700422002314204B708B70CB7002F030
:10B54000F1FB6848A9E7442B23D1FFF7A7FC664825
:10B55000FFF7F4FB654B1B6873B96548FFF7EEFB1B
:10B56000644B1B6863B95C48FFF7E8FB624B1B68E0
:10B57000012B09D1614890E7012BF1D16048EDE73B
:10B58000012BF3D15548EFE7002B7FF457AF5D480F
:10B5900083E7452B0BD14A490023042218200B7066
:10B5A0004B708B70CB7002F0BDFB514875E7462B9A
:10B5B0000CD1434901230B700422002318204B7047
:10B5C0008B70CB7002F0AEFB4D4866E7472B08D17D
:10B5D0003B4900230B704B708B70CB7004221C20F6
:10B5E00081E7482B09D1364901230B7000234B70AA
:10B5F0008B70CB7004221C2084E7492B25D1FFF7E8
:10B600004DFC4148FFF79AFB404B1B688BB92F4814
:10B61000FFF794FB3E4B1B689BB93E48FFF78EFB40
:10B620003D4B1B68002B3FF47DAF012B7FF406AF31
:10B6300087E7012B01D12648EAE7022BEAD125480A
:10B64000E6E7012BECD13548E8E74D2B0BD11C493F
:10B6500001230B700422002330204B708B70CB70C1
:10B6600002F060FB86E74E2B0AD115490023042225
:10B6700030200B704B708B70CB7002F053FB86E761
:10B680005A2B7FF4DBAE2648FFF758FB254B0022F0
:10B690001A70FDF7A1FCFFF773FDFFF7A3FDCDE6E0
:10B6A0006B88F02B02D903F027F9C7E63FF4C6AE4A
:10B6B00003F0B8F8C2E670BD8C1B0020A019002072
:10B6C000C41700207D1B0020341B0020DB1E010856
:10B6D000E71E0108F41E0108041F0108101F0108DD
:10B6E0001D1F0108291F0108361F0108B01700207F
:10B6F0003D1F0108C8170020B4170020561F01087D
:10B70000491F0108621F01086F1F0108D41700209C
:10B71000BC170020761F0108C0170020871F0108F2
:10B72000E3160108DC17002070B504213F48FEF73E
:10B73000B9FA002878D12820FDF7BAFD04213B484A
:10B740003B4CFEF7AFFA10B923780133237023780E
:10B75000502B69D132210120FFF71AFB354A3648B8
:10B76000364E374D00231370364A23701370364A15
:10B77000364C1370364A1370364B01221A70FFF79D
:10B78000DDFA214604220C2002F00CFBA378E278BB
:10B790001B0403EB0263227813446278214603EB17
:10B7A000022310200422336002F0FCFAA378E2782E
:10B7B0001B0403EB0263227813446278214603EBF7
:10B7C0000223142004222B6002F0ECFAA378E17823
:10B7D000214A1B0403EB016321780B44617803EBDE
:10B7E000012313603368144673B91C48FFF7A6FAA7
:10B7F0002B688BB91A48FFF7A1FA236883B9194857
:10B80000BDE87040FFF79ABA012B01D11648EDE769
:10B81000022BEDD11548E9E7012BEED11448EAE7F8
:10B82000012B01D11348EBE770BD00BF00040240BB
:10B830003C190020AB1700206F1F0108D41700200F
:10B84000BC170020AC170020AD170020C417002043
:10B85000AA170020DC170020C0170020DB1E0108FB
:10B86000761F01081D1F0108E71E0108F41E0108CC
:10B87000871F0108291F0108F8B50022054640214D
:10B880000F48FEF715FA0120FDF712FD05EB450301
:10B890000C4D05EB830500242E79B44204DB012016
:10B8A000BDE8F840FDF704BDAB6803EBC40253F8F4
:10B8B0003470107902F0D6FA0134B847EDE700BFD2
:10B8C000000402404C0A0020F8B500220546402141
:10B8D0000F48FEF7EDF90120FDF7EAFC05EB450303
:10B8E0000C4D05EB830500242E79B44204DB0120C6
:10B8F000BDE8F840FDF7DCBCAB6803EBC40253F8CD
:10B900003470107902F0AEFA0134B847EDE700BFA9
:10B9100000040240E8140020F8B50022054640214A
:10B920000C48FEF7C5F90120FDF7C2FC05EB450305
:10B93000094D05EB830500242E79B44200DBF8BDE8
:10B94000AB68002053F8347002F08CFA0134B84729
:10B95000F3E700BF000402404C0A002038B51B4B3F
:10B960001B4C00221A7002F02AFD206838B9194DCC
:10B970002B78032B03D0FFF77FFF03232B70236863
:10B98000012B08D1134D2B78032B04D00020FFF797
:10B990009BFF03232B702368022B0AD10E4B1878D0
:10B9A00060B90C4C2378032B08D0FFF765FF032305
:10B9B00023700120BDE83840FDF77ABC0020FFF776
:10B9C00083FF064B01221A70F3E700BFA517002082
:10B9D000D4170020AD170020AB170020AC170020B3
:10B9E0002DE9F04FC44B1D782DED028BEDB2012DEA
:10B9F00089B040F0CD81C14ADFF84CA3DFF84C9309
:10BA0000DFF84C83BE4F8AF80050002489F80050BC
:10BA1000147088F800503D701C70FDF743FCB94E5F
:10BA2000224630604021B848FEF742F92846FDF72B
:10BA30003FFCB64BCDF808A01B68CDF80C90012B4D
:10BA4000CDF81080059706964BD1B14EDFEDB18A47
:10BA5000DFF80093B04D376896F804A096F805809B
:10BA60004FF0000BDA4500F39E81B8F1000F40F073
:10BA7000C2814046FEF778FEF3EE047AB4EEE70AA0
:10BA8000F1EE10FAB0EE408A40F39B81049B83F8FC
:10BA90000080A24B1B689BB9DFF894B2A048012339
:10BAA000CBF8003003F040FC18EE100AFCF754FD10
:10BAB00002460B469B48394603F036FCCBF8008023
:10BAC0000027BA4500F3E781974B1B78012B00F064
:10BAD0005F810134802C40F0608100210220FFF75B
:10BAE00079F88A4B1B68002B4FD1DFED8A8A8F4E85
:10BAF0000027346896F804A075794FF00008C24515
:10BB000000F3D281002D40F019822846FEF72CFE6A
:10BB1000F3EE047AB4EEE70AF1EE10FAB0EE408AE2
:10BB200040F3CE81029B1D707C4B1B6883B9804E15
:10BB30007B480123336003F0F7FB18EE100AFCF793
:10BB40000BFD02460B467B48214603F0EDFB3560BA
:10BB500000210220FFF73EF8774B78491A68069BD0
:10BB60006D481B68D21A4FF47A73B2FBF3F2744B30
:10BB70001A6003F00BFD6848FFF7E0F8039B1B78A1
:10BB80001BB1029B1B78002BB1D1604B1B68022BB1
:10BB900040F0F1800024DFF8948125464FF00C0935
:10BBA00009FB05F202EB080352F8086093F804A0C1
:10BBB0005F794FF0000BDA4500F32882002F40F048
:10BBC00075823846FEF7D0FDF3EE047AB4EEE70A4C
:10BBD000F1EE10FAB0EE408A40F32882029B1F700B
:10BBE0004E4B1B689BB9DFF848B14D480123CBF899
:10BBF000003003F099FB18EE100AFCF7ADFC02468A
:10BC00000B464848314603F08FFBCBF800700134F7
:10BC10000A2C0BD1464D424801232B60002403F02F
:10BC200083FB484803F0F4FB2C6045253F4B00267E
:10BC300009FB0537B24500F388823B4B06931A781F
:10BC4000012A00F0A58001357F2D40F3D981002124
:10BC50000220FEF7BFFFDFF8B88000254FF00C0987
:10BC600009FB05F202EB080352F8086093F804A000
:10BC70005F794FF0000BDA4500F37682002F40F039
:10BC80009D823846FEF770FDF3EE047AB4EEE70AC3
:10BC9000F1EE10FAB0EE408A40F37682049B1F70FA
:10BCA0001E4B1B689BB9DFF888B01D480123CBF8F9
:10BCB000003003F039FB18EE100AFCF74DFC024689
:10BCC0000B461848314603F02FFBCBF800700134C7
:10BCD0000A2C0BD1164D124801232B60002403F0CF
:10BCE00023FB184803F094FB2C604525084B0026E5
:10BCF00009FB053730E000BFA81700203C190020E1
:10BD00006B000020CC17002000040240D417002054
:10BD1000E80E00208096184BB4190020C0170020B0
:10BD2000B61D0108BD1D0108A71700204C04002006
:10BD300018700020181E0108D01700209E1E010850
:10BD4000E4170020AD1E01086800002069000020F3
:10BD50006A000020FD1D0108B24500F37E82069BAB
:10BD60001B78012B14D001357F2D40F3F781002182
:10BD70000220FEF72FFFBA4B1B680122002B40F078
:10BD80007582B84B1B78002B40F07082B64B1A704E
:10BD900009B0BDEC028BBDE8F08F462C01D1FEF757
:10BDA00003FF0C3657E6B36803EBCB0253F83B3086
:10BDB0001079079302F056F8079B98470BF1010B97
:10BDC00050E6F2EE047AB4EEE70AF1EE10FACABFDA
:10BDD00070EE677A10EE100A17EE900AFCF7BCFBC3
:10BDE0003A46CDE90001A149284603F0CFFB284699
:10BDF000FEF794FF64E6B8F1020F7FF461AE4046AF
:10BE0000FEF7B2FCB4EEE80AF1EE10FA40D5FEF708
:10BE10009BFDB4EEE80AF1EE10FAB0EE408A28D5A8
:10BE2000059A00231370924BD3F800B0BBF1000FBA
:10BE300013D1DFF85C828F480123C8F8003003F08B
:10BE400073FA18EE100AFCF787FB02460B468A4885
:10BE5000394603F069FAC8F800B001210846FEF738
:10BE6000B9FE01210846FEF7B5FE0120FDF720FAD4
:10BE700026E610EE100AFCF76FFB3A46CDE900010A
:10BE80004946284603F082FB2846FEF747FFE8E7CD
:10BE900010EE100AEFE7B368002053F8378001F086
:10BEA000E1FF0137C0470CE6B36803EBC80253F863
:10BEB0003890107901F0D6FF08F10108C8471EE656
:10BEC000F2EE047AB4EEE70AF1EE10FA33DD70EE2A
:10BED000677A17EE900AFCF73FFB804689462246B8
:10BEE0006649DFF8ACB16648CDE9008903F04EFB46
:10BEF00002236448CBF8003003F016FA42464B4662
:10BF00002146614803F010FA5D48CBF80050FEF777
:10BF100005FF0024A2456ADC5C4B1B78012B3FF433
:10BF200037AF0137802F3FF413AE462F01D1FEF714
:10BF30003BFE0C36DDE510EE100ACCE7022DE8D111
:10BF40002846FEF711FCB4EEE80AF1EE10FA4BD5E4
:10BF5000FEF7FAFCB4EEE80AF1EE10FAB0EE408A11
:10BF600019D5039A00231370414B1E68002E7FF4ED
:10BF7000EFAD474D3F4801232B6003F0D5F918EE94
:10BF8000100AFCF7E9FA02460B464248214603F044
:10BF9000CBF92E60DCE510EE100AFCF7DDFA8046E6
:10BFA000894622463C49DFF8E8B03548CDE90089AA
:10BFB00003F0ECFA3348CBF8005003F0B5F94246F1
:10BFC00021464B46354803F0AFF900232C48CBF807
:10BFD0000030FEF7A3FE002220213148FDF768FE65
:10BFE0000120FDF765F994E710EE100AD5E7B36874
:10BFF000002053F8345001F035FF0134A84789E799
:10C00000462D7FF4CDADFEF7CFFDC9E59A680793C5
:10C0100002EBCB0152F83B200879069201F022FF97
:10C02000069A90470BF1010B079BC4E5F2EE047AE8
:10C03000B4EEE70AF1EE10FACABF70EE677A10EEBE
:10C04000100A17EE900AFCF787FA3246CDE9000194
:10C0500014490B4803F09AFA0948FEF75FFEE5E53C
:10C06000C8170020A4170020A9170020D01D010820
:10C07000C0170020B61D0108E91D0108351E010882
:10C08000B4190020581E01083A1E0108A717002005
:10C09000187000205E1E01087B1E0108801E01082A
:10C0A00000040240C11E01088096184B022F7FF445
:10C0B000BDAD3846FEF758FB5FED058AB4EEE80AE1
:10C0C000F1EE10FA3ED5FEF73FFCB4EEE80AF1EED1
:10C0D00010FAB0EE408A26D5039A00231370644B01
:10C0E000D3F800B0BBF1000F11D1624F62480123B9
:10C0F0003B6003F019F918EE100AFCF72DFA02461E
:10C100000B465E48314603F00FF9C7F800B0012135
:10C110000846FEF75FFD01210846FEF75BFD0120A2
:10C12000FDF7C6F882E510EE100AFCF715FA324664
:10C13000CDE900015249534803F028FA5148FEF76F
:10C14000EDFDE8E710EE100AEFE7BB68002053F8BA
:10C1500036B001F087FE0136D8476BE5462D7FF4F7
:10C160007FADFEF721FD7BE59A68039302EBCB01DF
:10C1700052F83B200879029201F074FE029A90472F
:10C180000BF1010B039B76E5F2EE047AB4EEE70ABD
:10C19000F1EE10FACABF70EE677A10EE100A17EED1
:10C1A000900AFCF7D9F93246CDE900013649354805
:10C1B00003F0ECF93348FEF7B1FD97E5022F7FF469
:10C1C00095AD3846FEF7D0FADFED308AB4EEE80AD6
:10C1D000F1EE10FA3ED5FEF7B7FBB4EEE80AF1EE49
:10C1E00010FAB0EE408A26D5059A00231370204B32
:10C1F000D3F800B0BBF1000F11D11E4F1E48012330
:10C200003B6003F091F818EE100AFCF7A5F902461E
:10C210000B461A48314603F087F8C7F800B00121F1
:10C220000846FEF7D7FC01210846FEF7D3FC0120A3
:10C23000FDF73EF85AE510EE100AFCF78DF932468C
:10C24000CDE900010E490F4803F0A0F90D48FEF7B3
:10C2500065FDE8E710EE100AEFE7BB68002053F831
:10C2600036B001F0FFFD0136D84775E5084B8EE585
:10C27000C017002018700020B61D0108E91D010834
:10C28000FD1D0108B4190020C11E01088096184B3D
:10C29000A6170020454A08B51378012B40F084808A
:10C2A00000231370424A1370424A1370424A1370BB
:10C2B000424A1370424A1370424A1370424A137042
:10C2C000424A1370424A1370424A1370424B1B7821
:10C2D000002B49D14FF480514048FDF7E3FC002882
:10C2E000F8D0002280213D48FDF7E2FC00224FF407
:10C2F00000613B48FDF7DCFC00224FF40041394867
:10C30000FDF7D6FC00224FF400713548FDF7D0FC54
:10C31000012240213148FDF7CBFC01228021304829
:10C32000FDF7C6FC01224FF480712E48FDF7C0FCDA
:10C3300001224FF480612948FDF7BAFC0122102147
:10C340002648FDF7B5FC202101222448FDF7B0FC6A
:10C35000254B264804221A6003F05AF8FFF7FEFA2C
:10C3600032210120FEF714FD214B1B68E3B9214B5C
:10C370001B78CBB92048FEF7E1FC204B1B78012B42
:10C3800002D11F48FEF7DAFC1E4B1B78012B02D1AD
:10C390001D48FEF7D3FC1D4B1B78012B04D11C4814
:10C3A000BDE80840FEF7CABC08BD00BFA7170020C3
:10C3B000A8170020A6170020A9170020301B002076
:10C3C0003C190020AB170020AC170020AD1700204F
:10C3D000AA170020A5170020DC1700200004024047
:10C3E000000802400000024018700020761D01087D
:10C3F000C8170020A41700208E1D0108DD1700209B
:10C40000951D0108DE170020A01D0108E11700207E
:10C41000AB1D010870B50446FCF744FF054E054608
:10C420003378012B04D0FCF73DFF401BA042F7D12D
:10C4300070BD00BFA717002070B502215D48FDF751
:10C4400031FC002840F0B58000F180404FF40041FD
:10C4500000F50130FDF726FC002840F0AA80564B7D
:10C460001B78002B40F0A58000F18040042100F5EE
:10C470000130FDF717FC002840F09B800A20FCF7F4
:10C4800017FF4C4C02212046FDF70CFC0028F9D088
:10C490004FF400412046FDF705FC0028F2D00421AE
:10C4A0002046FDF7FFFB0028ECD032210120FEF7EB
:10C4B0006FFC424C3F483F4D414E01224021FDF769
:10C4C000F7FB03233F48236002F0A2FF01228021F3
:10C4D0003848FDF7EDFB00233B48236002F098FF4E
:10C4E00004233A48236002F093FF4FF4FA70FFF7F9
:10C4F00091FF01224FF480613548FDF7D9FB4FF4DD
:10C5000080412846FDF7CEFB012802D03378012B6D
:10C51000F5D14FF4FA60FFF77DFF00228021254816
:10C52000244DFDF7C5FB4FF4FA70FCF7C1FE002265
:10C530004FF480612648FDF7BBFB002325482360AC
:10C5400002F066FF04232148236002F061FF4FF4EC
:10C5500080412846FDF7A6FB10B13378012BF6D1B8
:10C560001D4D1E482B6801332B600323236002F00E
:10C570004FFF4FF4FA70FCF79BFE2B6818491A0A1C
:10C580004A701A0C0B708A701B0E04222420CB7088
:10C5900001F0C8FB2A681349134802F0F7FF12485C
:10C5A000FEF7CCFB3378012B03D0BDE87040FFF7DA
:10C5B000D5B970BD00040240A517002018700020F6
:10C5C000A7170020551701087A1701088B170108D3
:10C5D000000802409F170108AC190020B11701089C
:10C5E000C41700209C180108B41900202DE9F0415F
:10C5F000B24E3268012A40F0BA804FF40041B04890
:10C60000B04CFDF74FFB58BB23784BBBAC4D4FF400
:10C6100000412846FDF746FB0028F8D0012323708F
:10C62000A94B1B682BB9A94B1B7813B9A848FEF777
:10C6300085FB01224FF40061A648A74DFDF738FBAA
:10C6400001224FF40041A548FDF732FB0023A44826
:10C650002B6002F0DDFE0423A2482B6002F0D8FE1E
:10C66000974DA14F2378012B40F081804FF400417A
:10C670002846FDF717FB002840F029822378012B7C
:10C6800040F025820A20FCF713FE8D4D4FF4004147
:10C690002846FDF707FB0028F8D0322101200025AD
:10C6A000FEF776FB257001F08AFE8B4C8448012250
:10C6B0004021FDF7FDFA03238C48236002F0A8FE19
:10C6C000012280217E48FDF7F3FA012210218148E2
:10C6D000FDF7EEFA01224FF400517948FDF7E8FA30
:10C6E00001224FF400717648FDF7E2FA01224FF47F
:10C6F00080717348FDF7DCFA012280217748FDF74D
:10C70000D7FA012240217548FDF7D2FA7848256012
:10C7100002F07EFE04237748236002F079FE05F1E3
:10C720008045714C05F501354FF480412846FDF7F1
:10C73000B9FA012802D02378012BF5D12378012BF7
:10C7400000F0CB8101F03BFE4FF49670FFF762FEE4
:10C75000694B604801221A704FF400610022FDF716
:10C76000A7FA00224FF400415C48FDF7A1FA3368B4
:10C77000002B40F0B281614D524C2B687BB9604E6A
:10C78000307800BBFDF7F0FFDFED5E7AB4EEE70A2C
:10C79000F1EE10FA03D523780BB9012333702F681B
:10C7A000012F10D1584E3078002840F08280FDF7DC
:10C7B000DBFFDFED547AB4EEE70AF1EE10FA02D5B2
:10C7C000237803B937702B68022B72D10020FDF754
:10C7D000CBFFDFED4C7ADFF828814C4EB4EEE70A50
:10C7E000F1EE10FA1DD523782BB93378022B02D144
:10C7F000454B01221A7023789BB998F8003083B911
:10C80000414B1B786BB933780BB1032B09D101F085
:10C81000D6FD0020FFF780F801230A203370FCF7D3
:10C8200047FD3778012F06D10020FFF74DF802238E
:10C8300088F80070337098F80060012E39D1324BBF
:10C840001B78002B35D132464FF400612148FDF7AB
:10C850002FFA32464FF400412048FDF729FA2C49BF
:10C860002C4802F0C6FE2B48FEF768FA2A492948F0
:10C8700002F0BFFE2748FEF761FA2849254802F07A
:10C88000B8FE2448FEF75AFA2549224802F0B1FEC4
:10C890002048FEF753FA23491E4802F0AAFE1D481D
:10C8A000FEF74CFA20491B4802F0A3FE1948FEF798
:10C8B00045FA22781D4B002A4ED139E0B4170020EA
:10C8C00000040240A5170020C8170020A41700206C
:10C8D000E316010800080240187000200000024022
:10C8E000AB180108B5180108A7170020C5180108E2
:10C8F0007A1701088B170108A8170020D417002009
:10C90000AB17002000004843AC170020AD170020F3
:10C91000EA180108B4190020131901083F19010889
:10C920006A19010892190108C0190108AA17002004
:10C930006B4A6C481178012901D1296829B1017825
:10C94000012909D12968012906D100211170664AFF
:10C950000170117001221A70217801F0FF0279B97B
:10C960005F4E317801290BD15E480178012907D14A
:10C970002D68022D04D102705B483270027019706C
:10C980001A78012A29D1217801F0FF0029BB1870FB
:10C99000564B22701B682BB9554B1B7813B9554861
:10C9A000FEF7CCF901224FF400615348534DFDF7D7
:10C9B0007FF901224FF400415148FDF779F9002336
:10C9C00050482B6002F024FD01203221FEF7E0F9EF
:10C9D00004234D482B6002F01BFD4FF400414B48EF
:10C9E000FDF760F9002878D12378012B75D10A2052
:10C9F000FCF75EFC454C4FF400412046FDF752F930
:10CA00000028F8D032210120FEF7C2F93B4C3F4804
:10CA10003E4D01224021FDF74BF903233C482360A2
:10CA200002F0F6FC012280213848FDF741F901228D
:10CA300010213148FDF73CF901224FF400513348F1
:10CA4000FDF736F901224FF400713048FDF730F957
:10CA500001224FF480712D48FDF72AF9012280212F
:10CA60002748FDF725F9012240212548FDF720F947
:10CA700000232848236002F0CBFC042326482360CF
:10CA800002F0C6FC254C4FF480412846FDF70AF918
:10CA9000012802D02378012BF5D12378012B1CD05B
:10CAA00001F08DFC4FF42F70FFF7B4FC1C4B1248C3
:10CAB00001221A704FF400610022FDF7F9F80022FC
:10CAC0004FF400410E48BDE8F041FDF7F1B83B7866
:10CAD000012B04BF00232370C4E5BDE8F08100BF33
:10CAE000AB170020AC170020AD170020C81700209E
:10CAF000A4170020E3160108000802401870002067
:10CB000000000240AB180108EA19010800040240C5
:10CB1000C51801087A1701088B170108A71700200C
:10CB2000A81700207F4B2DE9F74F1A78D2B2012ABF
:10CB300040F036827C4E7D4C00251D703368FBB181
:10CB4000012B40F0AE807A4A1278012A40F09C8096
:10CB500002237848236002F0E7FB774802F058FC94
:10CB60002560764B1B78012B40F09480022371489E
:10CB7000236002F0D9FB724802F04AFC00232360D4
:10CB8000FCF790FB6F4B9FED707A18606F4B1B6842
:10CB9000C01A07EE900AF8EE677A4FF0000AC7EE67
:10CBA000876AC4F800A016EE900AFBF7D5FC02468F
:10CBB0000B46674802F0B8FB01F059FC03236548B7
:10CBC000236002F025FC4FF49670FFF723FC624BC4
:10CBD00001931A78012A00F0E381604BD6F800B087
:10CBE00093F800905E4B5F4F1B785F4EDFF8B88183
:10CBF00009EA03094E4B1D78504B1A78EDB2D2B2B8
:10CC0000BBF1000F40F0CF813A683168574D584B67
:10CC100028681144D8F8002019600244554B0A4492
:10CC2000B9F1010F1A6040F0C180534A322102204D
:10CC3000C2F800B0FEF7ACF85A464FF400514F4826
:10CC4000FDF736F85A464FF480714C48FDF730F83E
:10CC50003B68D8F8002001333B601344484A136016
:10CC6000484B1B68002B40F0C2800122042146483B
:10CC7000FDF71EF84FF49670FCF71AFB42480022AD
:10CC80000421FDF715F8B2E04048236002F04CFBA8
:10CC90003F4863E701233D48236002F045FB3D48E0
:10CCA0006AE7022B7FF46CAF2C490978012924D163
:10CCB0002048236002F038FB374802F0A9FB284BDC
:10CCC00025601B78012B1ED102231A48236002F035
:10CCD0002BFB324802F09CFB00232360144B1B7893
:10CCE000012B17D102231348236002F01DFB1248C9
:10CCF00002F08EFB0023236033E72448226002F019
:10CD000013FB2748D9E701232048236002F00CFBDE
:10CD10002448DFE701231D48236002F005FB1C487F
:10CD2000E6E700BFA6170020D417002018700020E7
:10CD30006A000020581E01081C1C01086B0000201E
:10CD40005E1C0108D017002000007A44CC17002098
:10CD5000281D01083F1D0108A717002068000020BA
:10CD600069000020881B0020D41B00202C1B002001
:10CD7000E01B0020781B0020D81700200004024090
:10CD8000DC1B0020BC170020000C0240B61D01086F
:10CD90003D1C0108811C0108A41C0108E41C0108B9
:10CDA000C41C0108061D01083819002001224FF497
:10CDB0000071AF48FCF77CFF5A461021AC48FCF7E5
:10CDC00077FF5A464FF40071AA48FCF771FF3368A9
:10CDD0002A68013333601344A74A1360A74B1B68CA
:10CDE0002BB9A74A1368042B01DC013313603B689D
:10CDF000A44DDFF8E4922B701A0A6A701A0CAA701C
:10CE00001B0E042229460020EB7000F08BFF3A68CD
:10CE10009D499E4802F0BAFB9C48FDF78FFF33689E
:10CE20002B701A0A6A701A0CAA701B0E042229466B
:10CE30002820EB7000F076FF32689549934802F0A5
:10CE4000A5FB9248FDF77AFF33683A6891498F480D
:10CE50001A44914B1A6002F099FB8C48FDF76EFF63
:10CE6000D8F800302B701A0A6A701A0CAA700422C3
:10CE70001B0E29461046EB7000F054FFD8F8002036
:10CE80008649824802F082FB8048FDF757FFD9F8B7
:10CE900000302B701A0A6A701A0CAA701B0E04223A
:10CEA00029462C20EB7000F03DFFD9F800207C498A
:10CEB000764802F06BFB7548FDF740FFD9F800306B
:10CEC000D8F80020774971481A44774B1A6002F06D
:10CED0005DFB6E48FDF732FFD8F800303A687349C1
:10CEE0006A481A44724B1A6002F050FB6748FDF71B
:10CEF00025FFD9F8003032686E4964481A445E4B09
:10CF00001A6002F043FB6148FDF718FF33683A6886
:10CF100069495E481A44D8F800301A44D9F80030FC
:10CF20001A44664B1A6002F031FB5848FDF706FFC1
:10CF3000002280214F48FCF7BBFE0023604823609D
:10CF400002F066FA04235F48236002F061FA494C5C
:10CF50004FF480412046FCF7A5FE18B1019B1B78D9
:10CF6000012BF5D1464EFEF7F9FC32685649474889
:10CF700002F00CFB4548FDF7D1FE3368052B0FD1BD
:10CF80003E4B1C6864B9514A3E496C7001231360E2
:10CF9000202004222B70AC70EC7000F0C3FE3460D3
:10CFA00003B0BDE8F08FBBF1010F05EA020540F0C8
:10CFB0009580DFF82491D8F80020D9F80010306867
:10CFC0003E4B1144384A11603A6802440A44012D2C
:10CFD0001A6032D12A4B32210220C3F800A0FDF79B
:10CFE000D7FE52464FF400512248FCF761FE5246EC
:10CFF00040213748FCF75CFE29460220FDF7E6FE9B
:10D00000D8F800303A680133C8F800301344284A91
:10D010001360304B1B68002B7FF4E9AE01224FF404
:10D0200080511348FCF744FE4FF49670FCF740F92A
:10D0300000224FF480510E4823E65A464FF4007107
:10D040000B48FCF735FE524610210948FCF730FE2C
:10D05000524680211E48FCF72BFE51460220FDF768
:10D06000B5FED9F8003032680133C9F80030B2E6B5
:10D070000008024000040240D81B0020B017002026
:10D08000D8170020C417002015180108B419002073
:10D090002418010833180108E01B00204218010879
:10D0A00051180108601801087C1A00206F18010847
:10D0B000DC1B00207E1801088D180108781B002059
:10D0C0009F1701088B170108641D0108B81700207D
:10D0D00000000240BC1700202C1B0020BBF1020FF7
:10D0E0007FF485AE31683A68DFF818A2784BDAF839
:10D0F00000000A44D8F800101A600144754B7648C5
:10D100000A4401601A60B9F1000F5DD115BB01221C
:10D110004FF400717148FCF7CBFD2A4610216F488F
:10D12000FCF7C6FD2A464FF400716D48FCF7C0FDC0
:10D130002A4680216B48FCF7BBFD29462846FDF7AF
:10D1400045FE3368DAF80020013301323360CAF853
:10D15000002040E6012D7FF44AAE2A464FF40071CC
:10D160005E48FCF7A5FD4A4610215C48FCF7A0FD8F
:10D170004A464FF400715A48FCF79AFD4A4640214E
:10D180005848FCF795FD29464846FDF71FFE3268D2
:10D19000DAF80010D8F80030013232600A445249FF
:10D1A0000A603A680133C8F8003013444F4A1360EC
:10D1B0004F4B1B68002B7FF42CAF4E4A1368042B97
:10D1C0003FF727AF013323E7B9F1010F7FF40FAE2B
:10D1D000002D36D14A464FF400714048FCF768FDF7
:10D1E0002A4610213D48FCF763FD2A464FF4807122
:10D1F0003B48FCF75DFD2A4680213A48FCF758FD84
:10D2000029464846FDF7E2FD3A68D8F80010DAF8FA
:10D21000003001323A600A4434490A60326801330E
:10D22000CAF800301344304A1360314B1B68002B9E
:10D230007FF416AD2F4A1368042B3FF711AD01336D
:10D240000DE5012D7FF4D3AD32215846FDF7A0FD49
:10D25000274B1B680BB9274A136000224FF400517B
:10D260001F48FCF725FD00224FF480711C48FCF795
:10D270001FFD002240211B48FCF71AFD0121084632
:10D28000FDF7A4FD1C493B680A68013301323B608D
:10D290000A601344154A1360184B1D68002D7FF473
:10D2A000A6AD012204211648FCF702FD01224FF42D
:10D2B00080510A48FCF7FCFC4FF49670FBF7F8FF2E
:10D2C0002A4604210E48FCF7F3FC2A46B1E600BFCB
:10D2D000E01B0020781B00207C1A00200008024080
:10D2E0000004024000000240D81B0020DC1B00208C
:10D2F000B0170020D817002038190020BC170020D4
:10D30000000C02402C1B002080B58CB00024B84DCE
:10D31000B84FDFF84083FBF79FFFFDF789FC14222D
:10D32000002107A801F08CFB02942B6BB24843F05C
:10D3300004032B632B6B03F004030293029B0394FF
:10D340002B6B43F080032B632B6B03F08003039361
:10D35000039B04942B6B43F001032B632B6B03F0B3
:10D3600001030493049B05942B6B43F002032B638E
:10D370002B6B03F002030593059B06942B6B43F084
:10D3800008032B632B6B03F008030693224641F638
:10D390006F71069BFCF78CFC224648F220019748EF
:10D3A000FCF786FC01224FF4E0719448FCF780FC06
:10D3B000012290219048FCF77BFC012242F270711F
:10D3C0008F48FCF775FC224604218E48FCF770FC60
:10D3D000224680218A48FCF76BFC012641F6FF7348
:10D3E00007A985480793089609940A94FCF784FBDB
:10D3F00048F2E01307A981480793089609940A9414
:10D40000FCF77AFB4CF2060307A97D4807930894C2
:10D410000996FCF771FB42F2F07307A9784807936D
:10D42000089609940A94FCF767FB4FF4805307931E
:10D4300007A9754B724808934FF004090996FCF749
:10D440005BFB07A96F48CDF81C90089609940A94D5
:10D45000FCF752FB22460F212820FCF769F928200F
:10D46000FCF79AF900942B6B43F480032B632B6B2E
:10D4700003F480030093009B01942B6B43F400138F
:10D480002B632B6B03F4001322460D210193102014
:10D49000019BFCF74DF91020FCF77EF922460E2186
:10D4A0003A20FCF745F93A20FCF776F9574BBC6077
:10D4B0000C254FF4E13A384687E808047D61FC60AA
:10D4C0003C61BC61FC61FCF7BFFF514BC8F81450D4
:10D4D000404688E80804C8F80840C8F80C40C8F876
:10D4E0001040C8F81840C8F81C40FCF7ADFF2146B2
:10D4F000102207A801F0A4FA464D474AAC604FF449
:10D50000803385E80C002846444BAB622E612E76B2
:10D5100085F82040EC62EC60EE6185F830406E6189
:10D52000FBF7DAFE07A92846079408960994FCF74A
:10D530004BF8062307A92846099307940896FCF799
:10D5400043F80A223649374D4046FDF709F832467E
:10D5500035493846FDF704F8344B1B682146986876
:10D5600001F05EFFFDF79AFC314B1E70FBF734FDB6
:10D5700001F060F821462046FBF71CFE2D48C5F857
:10D58000009001F045FFFDF7FBFDFDF72BFE2A485B
:10D590002C6001F03DFF29482C6001F039FF28483C
:10D5A0002C6001F035FF25482C6001F031FF224846
:10D5B0002C6001F02DFF23482C6001F029FF224848
:10D5C0002C6001F025FF21482C6001F021FF20484C
:10D5D0002C6001F01DFF402000F038FB422000F0DD
:10D5E00035FB442000F032FB00F041FF34E000BF87
:10D5F00000380240941B0020000802400000024056
:10D6000000040240000C02400000211000440040D1
:10D6100000100140841A0020002001400100000F8A
:10D620007D1B0020187000207C1B0020B0150020FE
:10D63000E0170020991F0108B21F0108DC1F010834
:10D640000620010830200108582001087C2001082C
:10D65000A5200108341B00202A48C5F8009001F0DD
:10D66000D7FE32210220FDF793FB274B1B68002BCE
:10D6700037D12648264D274C274EFDF75FFB274B19
:10D6800027491A68274801F081FF2648FDF756FB15
:10D69000254B26491A68234801F078FF2148FDF7F9
:10D6A0004DFB2846FBF790FD78B932210120FDF7AC
:10D6B0006FFB73791E491F48422B08BF01234FF0AF
:10D6C000090208BF2370FCF74BFF2378012BE8D138
:10D6D0001948FDF733FB194B1B6813B91848FDF7C0
:10D6E0002DFBFEF73BF9FDF787FEFEF71DF8FEF771
:10D6F0007DFFFEF7CFFDFEF773F9FFF713FAFEF794
:10D700009BFEF0E7CF200108C8170020E6200108A3
:10D710008C1B0020DF170020A019002070000020C3
:10D72000ED200108B41900206C000020F920010848
:10D730007D1B0020341B00208E1D0108D417002003
:10D74000052101087047000082B00C4B00210091B8
:10D750005A6C42F480425A645A6C02F4804200923D
:10D76000009A01911A6C42F080521A641B6C03F00B
:10D7700080530193019B02B0704700BF0038024004
:10D7800010B5044688B01422002103A801F058F90E
:10D790002268124B9A421ED103F58C33002101916D
:10D7A0005A6C0F4842F480725A645A6C02F48072C8
:10D7B0000192019A02911A6B42F001021A631B6BEB
:10D7C00003F001030293029B0123039303A90323A4
:10D7D0000493FCF791F908B010BD00BF0020014090
:10D7E0000000024070B514228AB0064600210DEBFD
:10D7F000020001F025F93368354A93423ED1354B9A
:10D800003548364C002501955A6C42F010025A6496
:10D810005A6C02F010020192019A02951A6B42F0C2
:10D8200001021A631B6B03F001030293029B4FF486
:10D83000C0630593022306930123079303230893F0
:10D8400005A907230993FCF757F9254B23604FF0EF
:10D85000006363604FF48063A560E56023616561E8
:10D86000A561E561256265622046FBF7CFFF08B13F
:10D87000FFF768FF7463A6630AB070BD194A93424C
:10D88000FAD1144B1448184C002503951A6C42F435
:10D8900000321A641A6C02F400320392039A04955F
:10D8A0001A6B42F001021A631B6B03F0010304932D
:10D8B000049B0C2305930223069301230793032360
:10D8C000089305A907230993FCF716F9074BBDE751
:10D8D000001001400038024000000240CC1A002035
:10D8E000406402400044004040190020886002402B
:10D8F0007047FEE7FEE7FEE7FEE7704770477047B8
:10D90000FBF7C4BC0148FCF73DB800BF401900203C
:10D910004FF48050FCF7D2B90148FCF733B800BF90
:10D92000CC1A00203223013B13F0FF0300D17047D3
:10D9300000BFF8E7044905481123202281E80C00C4
:10D940000223CB60FCF7D8B8E41B0020000802409B
:10D95000044905481123402281E80C000223CB60D2
:10D96000FCF7CAB8E41B002000080240044905483F
:10D9700020230B6000234B608B60FCF7BDB800BF19
:10D98000E41B0020000802400449054840230B60C6
:10D9900000234B608B60FCF7AFB800BFE41B002096
:10D9A0000008024008B5FFF7E1FFFFF7EDFFFFF7C2
:10D9B000B9FFFFF7BFFFFFF7B5FFBDE80840FFF76E
:10D9C000C7BF38B505460724FFF7C2FF45FA04F381
:10D9D000DB070BD5FFF7CAFFFFF7A4FFFFF7D4FF64
:10D9E000FFF7A0FF14F1FF34EED238BDFFF7A2FF1E
:10D9F000F2E7000010B5FFF7ABFFFFF7B7FFFFF747
:10DA000091FFFFF7C1FFFFF78DFF20210648FCF7CC
:10DA100049F90446FFF79CFFFFF78CFFFFF782FFF1
:10DA2000B4FA84F0400910BD0008024008B5FFF7C1
:10DA30009DFFFFF777FFFFF78BFFFFF773FFFFF700
:10DA400079FFFFF76FFFFFF79FFFFFF76BFFFFF710
:10DA50008DFFBDE80840FFF765BF0000F8B515462B
:10DA6000C92400F0FE07CEB2013CA4B244B9134B66
:10DA7000134804221A6001F0CBFC4FF0FF30F8BDD0
:10DA8000FFF790FF3846FFF79CFFFFF7B3FF10B991
:10DA9000FFF7CCFFE8E73046FFF793FFFFF7AAFF59
:10DAA0000028F5D02846FFF78CFFFFF7A3FF0028DA
:10DAB000E3D0FFF7BBFF0120F8BD00BF18700020C6
:10DAC0003D260108F8B500230F4E037005460724D4
:10DAD0000127FFF73DFFFFF749FFFFF723FFFFF7A0
