:020000040800F2
:10000000F807002049020008EF1F00081B1C000829
:10001000ED1F000801090008F92300080000000096
:100020000000000000000000000000005B2000084D
:100030008D0900080000000059200008CD200008AC
:1000400063020008630200086302000863020008FC
:1000500063020008630200086302000897090008B1
:1000600063020008630200086302000863020008DC
:1000700063020008630200086302000863020008CC
:100080006302000863020008630200080000000029
:1000900000000000000000000000000063020008F3
:1000A000630200086302000863020008630200089C
:1000B000630200086302000863020008630200088C
:1000C000630200086302000863020008630200087C
:1000D00063020008630200086302000800000000D9
:1000E0008F09000863020008630200080000000096
:1000F0000000000000000000000000006302000893
:1001000000000000630200086302000863020008A8
:1001100000000000000000000000000000000000DF
:100120006302000863020008050900086302000872
:100130006302000800000000000000000000000052
:100140000000000000000000000000006302000842
:1001500063020008630200086302000863020008EB
:1001600063020008630200080000000000000000B5
:10017000000000000000000000000000000000007F
:100180000000000063020008000000000000000002
:10019000630200086302000800F002F800F044F86F
:1001A0000AA090E8000C82448344AAF10107DA45D2
:1001B00001D100F039F8AFF2090EBAE80F0013F0E0
:1001C000010F18BFFB1A43F00103184788250000F0
:1001D000A8250000103A24BF78C878C1FAD8520781
:1001E00024BF30C830C144BF04680C6070470000B1
:1001F0000023002400250026103A28BF78C1FBD830
:10020000520728BF30C148BF0B607047642900F017
:100210001981732900F0A182002070471FB502F0F8
:100220007BFA1FBD10B510BD00F0A1FA1146FFF713
:10023000F5FF02F0A3F900F0BFFA03B4FFF7F2FFF5
:1002400003BC00F0C3FA0000094880470948004792
:10025000FEE7FEE7FEE7FEE7FEE7FEE7FEE7FEE776
:10026000FEE7FEE704480549054A064B70470000D3
:100270006121000899010008F8010020F80700201A
:10028000F8030020F803002053EA020C00F0698014
:100290002DE9F04B4FF00006002B1FBFB3FA83F59A
:1002A00003FA05F424FA05F65E4012BF1643B2FACB
:1002B00082F502FA05F4C5F120051EBF22FA05FCFD
:1002C00044EA0C04203556EA044C4FEA144418BFA3
:1002D000641C4FF000084FF00009904271EB030CD2
:1002E00039D3002919BFB1FA81F701FA07F6B0FA3C
:1002F00080F700FA07F6C7F120071EBF20FA07FCB7
:1003000046EA0C062037B6FBF4FCA7EB0507103FC6
:1003100007F01F0BCBF120060CFA0BFB2CFA06F6AC
:1003200044BFB3460026202FA4BF5E464FF0000B0B
:100330005BEA060C08BF4FF0010B19EB0B09ABFB96
:10034000027C48EB0608C01B06FB02CC0BFB03CC6F
:1003500071EB0C01C1E70B46024641464846BDE839
:10036000F08B13B54FF000004FF00001AFF30080A9
:10037000BDE81C40704700000FB41CB5084B06AA2E
:100380007B4469460090059800F0BDF904460020C2
:10039000694600F0CBF920461CBC5DF814FB000058
:1003A000A903000070B5044685690068C10601D53F
:1003B000302600E02026C00707D070BDD4E9012117
:1003C00030469047206A401C20626D1EF6D570BDF5
:1003D00070B5044685690078C00707D170BDD4E9BF
:1003E000012120209047206A401C20626D1EF6D516
:1003F00070BD70B50C460546012A05D028788006E8
:1004000000D5EA69002302E0012305E05B1C93426A
:1004100002D2E05C0028F9D1A869E618C01AA861E8
:10042000286A184428622846FFF7BCFF04E0D5E993
:10043000012114F8010B9047B442F8D32846FFF786
:10044000C7FF70BD2DE9F0410646002410687529EC
:10045000314616A510D0AFF30080002802DA4042E2
:1004600013A507E031688A0701D512A502E0490704
:1004700004D511A5012401E0AFF3008000210A2278
:1004800006F1240709E0B0FBF2FCB0FBF2F302FB3B
:100490001C00303078541846491C0028F3D12346FC
:1004A0002A463046BDE8F04100F0CEB8000000001A
:1004B0002D0000002B000000200000002DE9F05F5F
:1004C000894604464FF0000ADFF824B1FB44C0F827
:1004D00020A02046E168884700287DD0252806D046
:1004E000D4E901219047206A401C2062F1E70025F1
:1004F0005F462046E16888472028064607DB312E04
:1005000005D2B81910F8200C08B10543F1E7A80787
:1005100001D525F00405C4F81CA00027C4F818A0D4
:100520002A2E09D0304601F0C7FF38B304EB870804
:10053000303EC8F8186019E059F8041B204604EB57
:1005400087029161E1688847012F064618D1E0696A
:10055000002820DA25F020051DE0D8F8180000EB6F
:10056000800006EB40003038C8F818002046E168EB
:100570008847064601F0A0FF0028EED1012F0AD0DF
:100580002E2E08D12046E16888477F1C0646022FA0
:1005900045F02005C4DBA069002803DA404245F09D
:1005A0000105A061E80701D025F01005A6B1A6F16C
:1005B0004100192802D8203645F400654A463146E4
:1005C000204625604D46FFF721FE60B1012807D087
:1005D000ED1D25F0070000E007E000F1080978E7CD
:1005E00005F1040975E730467AE7206ABDE8F09F17
:1005F000722200004FF0000200B513469446964662
:10060000203922BFA0E80C50A0E80C50B1F1200125
:10061000BFF4F7AF090728BFA0E80C5048BF0CC0D3
:100620005DF804EB890028BF40F8042B08BF704731
:1006300048BF20F8022B11F0804F18BF00F8012BA3
:1006400070477047704770472DE9F0470D4699464F
:100650009246044600F124080168880604D5E06942
:1006600021F01001216000E00120A84201DD471BBC
:1006700000E00027A1697A1902EB0900081AA061BD
:100680002078C00602D42046FFF78CFE002608E042
:10069000D4E901211AF806009047206A401C761C14
:1006A00020624E45F4DB2078C0060AD52046FFF7CD
:1006B00079FE06E0D4E9012130209047206A401CF1
:1006C0002062381EA7F10107F4DC07E0D4E901211C
:1006D00018F805009047206A401C2062281EA5F1EA
:1006E0000105F3DC2046FFF773FE2078000602D5F3
:1006F0000220BDE8F0870120FBE7000001694A1CE9
:1007000002610878704700B58FB0CDE90131002152
:10071000059105497944CDE9031011466846FFF774
:10072000CDFE0FB000BD0000E5FFFFFF0A6802F834
:10073000010B0A60704710B5436913B1AFF3008035
:1007400001E0FFF756FE012010BD127800F12401F0
:100750000A7000224A700122EDE711684FF0FF3263
:10076000E9E700000048704798010020704775468F
:10077000FFF7F8FFAE4605006946534620F0070034
:10078000854618B020B5FFF76DFDBDE820404FF05D
:1007900000064FF000074FF000084FF0000B21F06B
:1007A0000701AC46ACE8C009ACE8C009ACE8C00938
:1007B000ACE8C0098D46704710B50446AFF3008021
:1007C0002046BDE81040FFF738BD00000149182061
:1007D000ABBEFEE726000200464910B54A6822F487
:1007E00040324A604A6843681A434A6001684A686E
:1007F00022F480724A6001684A68036942EA03226F
:100800004A6001684A6822F040724A6001684A689A
:1008100083681A434A6001688A6822F400628A6029
:1008200001688A68C3681A438A60816A6FF07062DF
:10083000D14201688A6822F070628A6001688A6821
:100840000CD0836A1A438A6001688A6822F0405299
:100850008A6001688A68C36A1A4301E022F0405244
:100860008A6001688A6822F002028A6001688A68E8
:10087000037E42EA43028A6090F820100029016852
:100880004A680FD042F400624A6001684A6822F464
:1008900060424A6001684A68174C436A04EB43337C
:1008A0001A4301E022F400624A600168CA6A22F435
:1008B0007002CA620168CA6A838B104C04EB03534E
:1008C0001A43CA6201688A6822F400728A60016869
:1008D0008A6890F8303042EA43228A6001688A6868
:1008E00022F480628A6001688A68406942EA802056
:1008F000886010BD0023014000E0FFFF0000F0FF12
:10090000FEE70000014800F0C1B9000038010020F6
:1009100001681823CAB2103AB2FBF3F2054B6FF329
:100920000901032A9B5CC36500D9091D816508463E
:10093000704700002227000810B5014600208B698F
:100940008A6A4FF0C07453B1B3F5005F15D072B12D
:10095000012A0CD0022A0AD0032A09D104E01AB1D4
:10096000012A06D0022A03D1C96AC90100D5012093
:1009700010BDC96AA142FAD010BD002AF7D0012AE1
:10098000F2D0022AF3D0032AF3D010BD70474FF4FF
:10099000004000F0EDBA022000F0EABA72B6FEE7BD
:1009A00078B50024009490F83C20012A19D0012247
:1009B00080F83C200A6807230568092A13D9EE68E5
:1009C0000A3A02EB420293409E43EE600B788A683B
:1009D0000A3B03EB43039A400368DD682A43DA606D
:1009E00010E0022078BD2E6902EB420293409E4344
:1009F0002E610B788A6803EB43039A4003681D69F4
:100A00002A431A614A681F23072A13D205686E6BAE
:100A1000521E02EB820293409E436E630A8893B299
:100A20000A79521E02EB820293400268556B2B43F7
:100A3000536327E005680D2A12D22E6BD21F02EBFA
:100A4000820293409E432E630B790A88DB1F92B289
:100A500003EB83039A4003681D6B2A431A6311E07A
:100A6000EE6A0D3A02EB820293409E43EE620B79EE
:100A70000A880D3B92B203EB83039A400368DD6A58
:100A80002A43DA621B4B0568194A9D420AD10D6858
:100A9000122D07D1556825F400055560556845F4B9
:100AA0008005556005689D421DD1134D0B68AB4212
:100AB00001D0112B17D1536823F48003536053687E
:100AC00043F4000353600968A9420CD10B490C4A56
:100AD0000968B1FBF2F101EB8101490000E0491E18
:100AE00000910029FBD180F83C40002078BD000037
:100AF00000230140002001401200001020000020CF
:100B000040420F000068C06C704770B504004FF0A1
:100B1000000503D0206C002610B107E0012070BD55
:100B2000204600F01DF8666484F83C60206CC00626
:100B300010D4206C20F4885040F00200206420463D
:100B4000FFF74AFE6664206C20F0020040F00100CE
:100B5000206400E0012584F83C60284670BD000058
:100B600010B586B0044614216846FFF743FD1149CD
:100B7000206888421CD110480021026842F480722B
:100B80000260006800F4807005900B481438026819
:100B900042F001020260006800F0010005900120AF
:100BA00000900320CDE901016946044800F0ECF90A
:100BB00006B010BD00200140443802400000024051
:100BC00018B50021009190F83C20012A07D001229D
:100BD00080F83C2002689368DB0702D011E0022015
:100BE00018BD936843F001039360244A244B1268B4
:100BF000B2FBF3F202EB420200E0521E0092002A26
:100C0000FBD102689368DB072ED0036C40F20164CD
:100C1000A34343F48073036453685B0505D5036CF9
:100C200023F4005343F480530364036CDB0404D5C2
:100C3000436C23F00603436400E0416480F83C10F9
:100C400010496FF02203136049680068C90602D09A
:100C50000D49884210D1816811F0405F0CD1816844
:100C600041F08041816007E0016C41F010010164B6
:100C7000416C41F001014164002018BD20000020BA
:100C800040420F0000230140002001402DE9F843BD
:100C900004464FF00009CDF8009063484FF4165118
:100CA000A56D0068B0FBF1F72E6894F85C10082081
:100CB00000FA01F131420FD021680A6852070BD5C2
:100CC0000A6822F004020A6094F85C108840A86068
:100CD000606D40F00100606594F85C104FF0010811
:100CE00008FA01F0304208D021684969090604D5A4
:100CF000A860606D40F00200606594F85C1004200C
:100D00008840304208D021680968890704D5A86066
:100D1000606D40F00400606594F85C10102088401D
:100D2000304218D021680968090714D5A8602068E6
:100D30000168490304D50068000308D5A16C07E0E9
:100D40000168C90503D4016821F008010160216C24
:100D500009B12046884794F85C1020208840304232
:100D600031D021680968C9062DD5A86094F83500EE
:100D700005282068016806D0490347D500680003AC
:100D80001DD4616C1CE021F01601016020684169EE
:100D900021F080014161206C08B9A06C20B120686D
:100DA000016821F00801016094F85C103F20884040
:100DB000A86084F8358084F83490216D1FE0E16BE1
:100DC00009B120468847606D00282BD0606DC007B0
:100DD00014D0052084F835002068016821F0010155
:100DE00001600098401C0090B84203D82068006859
:100DF000C007F6D184F8358084F83490E16C00297E
:100E000010D001B02046BDE8F04308470168C9058D
:100E1000D5D4016821F01001016084F8358084F890
:100E20003490CCE7BDE8F883200000202DE9F041A4
:100E3000044600F0A3F906465CB1022084F83500B0
:100E4000002584F834502068016821F00101016018
:100E50000DE00120BDE8F08100F090F9801B05282D
:100E600005D920206065032084F83500F2E720686A
:100E70000068C007F0D12268116820480140D4E919
:100E800001031843D4E90336334318436369184315
:100E9000A3691843E3691843236A18430843616A46
:100EA000042903D1D4E90B131943084310602068C7
:100EB0004069666A20F0070130460E430127042886
:100EC0000CD1A06A0643E06A40B12046FFF734FD2A
:100ED00020B14020606584F83570BAE7206846612B
:100EE0002046FFF715FD94F85C203F21914081607A
:100EF000656584F835700020ACE700003F8010F095
:100F000070B5044600F03AF90546601C02D004486A
:100F10000078044400F032F9401BA042FAD370BDBF
:100F20001400002070B500240E4B0F4E0F4D4FF4EF
:100F3000006102280AD0B0F5004F06D10122184600
:100F400000F017F934700220E87070BD00221846D6
:100F500000F00FF9012030702C706C70AC70EC70E8
:100F600070BD0000000802400E0000202C0100208F
:100F7000044910B50A68024202D00860FFF7D2FFA8
:100F800010BD0000143C01402DE9F84FDFF8B8A176
:100F90000022012403254FF00F090AF1040BAAF1E6
:100FA000040E00BF0B6804FA02F63340B34273D15B
:100FB0000F7907F00307012F01D0022F16D18768A0
:100FC0004FEA420805FA08FC27EA0C07D1F80CC0E2
:100FD0000CFA08FC4CEA070CC0F808C04768B74395
:100FE0000E79C6F3001696403E4346600E79F643EE
:100FF000B6070DD0C768560005FA06FC27EA0C07AD
:10100000D1F808C00CFA06FC4CEA070CC0F80CC07A
:101010000E7906F00306022E10D1D60800EB8608E2
:10102000D8F8206057074FEAD76C09FA0CF7BE438F
:101030000F6907FA0CF73743C8F8207006684FEAC3
:10104000420C05FA0CF7BE430F7907F0030707FAC5
:101050000CF7374307604E6816F4403F6DD03B4EA7
:10106000376847F480473760366822F0030706F494
:1010700080460096364E07EB060CDCF808689707AA
:101080003F0F09FA07F826EA0806DFF8C88040454E
:1010900003D14FF000081EE04FE0DFF8BC80404570
:1010A00002D14FF0010816E0DFF8B080404502D1D0
:1010B0004FF002080FE0DFF8A880404502D14FF062
:1010C000030808E0DFF89C80404502D14FF0040897
:1010D00001E04FF0070808FA07F848EA0608CCF8DC
:1010E0000888DAF800605746D1F804C09E435FEAEA
:1010F000CC2C00D51E433E60DBF800605F46D1F883
:1011000004C09E435FEA8C2C00D51E433E60DEF88F
:1011100000607746D1F804C09E435FEA8C3C00D55E
:101120001E433E60084F083F3E68D1F804C09E430E
:101130005FEACC3C00D51E433E60521C102AFFF4EF
:1011400031AFBDE8F88F0000083C01404438024050
:10115000003001400000024000040240000802404C
:10116000000C0240001002400069084000D001203D
:1011700070470AB1816170470904FBE70148806844
:101180007047000014000020024881680278114472
:1011900081607047140000200B4810B5016841F4CD
:1011A00000710160016841F480610160016841F4EF
:1011B00080710160032000F06FF8002000F006F855
:1011C00000F024F8002010BD003C024070B50D4D29
:1011D00004464FF47A712878B1FBF0F00A490968A7
:1011E000B1FBF0F000F00CFB48B9102C07D2002244
:1011F0002146501E00F030F800206C6070BD0120C8
:1012000070BD000014000020200000200A4808B52E
:10121000016841F480410160006800F48040009062
:101220000548001F016841F080510160006800F02E
:101230008050009008BD000044380240002809DBBF
:1012400000F01F02012191404009800000F1E020E0
:10125000C0F8001170470000F0B40E4B1B680C463C
:10126000C3F30223C3F10705042D00D90425191D7A
:10127000072901D2002300E0DB1E012606FA05F152
:10128000491E214099409E40761E16403143F0BCD5
:1012900001F002B90CED00E0064900F00702086811
:1012A0004FF6FF03184040EA0220034A104308604B
:1012B000704700000CED00E00000FA052DE9F04752
:1012C0000E46050065D0DFF81481D8F80000F7B2AB
:1012D00000F00700B04207D288F80070D8F800008C
:1012E00000F00700B04254D128683D4C810712D568
:1012F000400703D5206840F4E050206028780007BC
:1013000003D5206840F4604020602068A96820F080
:10131000F000084320602878C0072DD03049686865
:101320000839012812D0022813D0032811D00968E7
:10133000890700292DDA216821F00301014321608A
:10134000FFF71CFF814641F2883A0EE009688903E5
:10135000EFE709688901ECE7FFF710FFA0EB09014F
:10136000514502D90320BDE8F0872068696800F084
:101370000C00B0EB810FEFD1D8F80010404601F01F
:101380000701B14207D90770006800F00700B042BA
:1013900001D00120E7E72878400705D52068E968F3
:1013A00020F4E050084320602878000706D5206824
:1013B000296920F4604040EAC100206000F038F85C
:1013C0002168084AC1F30311515CC840064908600E
:1013D00006480068FFF7FAFE0020C4E7003C024020
:1013E000083802402A2700082000002018000020AA
:1013F0000448054900680968044AC1F38221515C28
:10140000C840704720000020083802403A270008F2
:101410000448054900680968044AC1F34231515C37
:10142000C840704720000020083802403A270008D2
:10143000154810B5006810F00C02144813D0144978
:10144000042A0FD0082A0ED10F4C241F22682368CB
:1014500002F03F025B0207D52068C0F38810A0FBB2
:10146000010106E0084610BD2168C1F38811A1FB07
:1014700000010023FEF708FF2168C1F30141491C68
:101480004900B0FBF1F010BD083802400024F40020
:1014900040787D012DE9F84F04006ED02078DFF808
:1014A0004C93C007A9F104054AD009F10400016872
:1014B000C1F38101012908D00068C0F3810002282E
:1014C0000AD1D9F80000400206D52868800337D534
:1014D00060680028E1D033E06068B0F5803F10D04C
:1014E000B0F5A02F286810D020F48030286028683C
:1014F00020F4802028606068A8B1FFF73FFE064610
:101500000DE0286840F48030F4E740F48020286043
:10151000F7E700BFFFF732FE801B642873D8286806
:101520008003F7D50CE0FFF729FE064605E000BF73
:10153000FFF724FE801B6428F0D828688003F7D4C6
:101540002078DFF8AC8280074FF0000A3ED5A7482C
:10155000001D016811F00C0F08D00068C0F3810075
:1015600002280BD1D9F80000400207D42868800770
:1015700016D5E068012800D112E033E1E068B8B187
:101580000120C8F80000FFF7F9FD064605E000BF9E
:10159000FFF7F4FD801B0228C0D828688007F7D524
:1015A0002868216920F0F80040EAC10028600DE0B9
:1015B000C8F800A0FFF7E2FD064604E0FFF7DEFDF5
:1015C000801B02281FD828688007F7D420780007DE
:1015D00022D5864F87486169703771B1012101605A
:1015E000FFF7CCFD064604E0FFF7C8FD801B02288C
:1015F00009D838688007F7D50EE0C0F800A0FFF7DB
:10160000BDFD064605E082E0FFF7B8FD801B02281D
:101610007DD838688007F7D42078400768D5DFF890
:10162000CCB100270BF13C0BDBF80000C0000BD461
:10163000DBF8001041F08051CBF80010DBF800001F
:10164000012700F0805000906B4E3068C00510D428
:10165000306840F480703060FFF790FD009005E046
:10166000FFF78CFD0099401A022850D83068C00559
:10167000F6D55E4EA0686C3601280FD0052830687C
:1016800010D020F001003060306820F0040030609D
:10169000A068B8B1FFF772FD00900FE0306840F02D
:1016A0000100F4E740F004003060F7E7FFF766FD63
:1016B0000099411A41F28830814266D8306880072B
:1016C000F4D50EE0FFF75AFD009007E0FFF756FD56
:1016D0000099411A41F28830814256D8306880071B
:1016E000F4D42FB1DBF8001021F08051CBF80010BA
:1016F000A069C8B33D49091D0968C1F381010229E8
:101700004AD00228504607D0C8F8600000E03CE00C
:10171000FFF734FD04463BE04746C8F86000FFF79A
:101720002DFD064605E000BFFFF728FD801B0228BF
:101730002BD828688001F7D4D4E907010843A16AAF
:101740002E4A490802EB0141626A41EA82110843CC
:1017500094F82C1040EA0161C9F8001001203866A5
:10176000FFF70CFD044606E03EE000BFFFF706FD74
:10177000001B022809D828688001F7D534E000BF93
:10178000FFF7FCFC001B022802D90320BDE8F88FFC
:1017900028688001F4D427E00128F7D0D9F80000A8
:1017A000E26900F4800191421CD1226A00F03F01FD
:1017B000914217D147F6C071626A0140B1EB821FB6
:1017C00010D1A26A4FF0FF3300F4403103EB520214
:1017D000B1EB024F06D194F82C1000F07060B0EB22
:1017E000016F01D00120D1E70020CFE7043802408B
:1017F00000004742800E4742007000400000FFFF9B
:1018000010B5401EB0F1807F01D3012010BD4FF014
:10181000E02460610F21601700F03EFE0020A0610F
:1018200007202061002010BD70B590F83C20012AEF
:101830002CD0012480F83C40022280F83D2003682F
:101840005A689D6822F070060A6832435A60104B4D
:1018500002689A420ED0B2F1804F0BD00D4B9A42E3
:1018600008D00D4B9A4205D00C4B9A4202D00C4B3B
:101870009A4204D1496825F080031943916080F8A9
:101880003D40002180F83C10084670BD022070BD2C
:10189000000001400004004000080040000C00402F
:1018A0000040014010B5040003D094F83D0010B191
:1018B00007E0012010BD002084F83C00204600F025
:1018C0001FF8022084F83D00211D206800F050FC24
:1018D000012084F8460084F83E0084F83F0084F834
:1018E000400084F8410084F8420084F8430084F802
:1018F000440084F8450084F83D00002010BD00003D
:1019000008B50068B0F1804F08D10548016841F082
:1019100001010160006800F00100009008BD0000B6
:101920004038024090F83D10012901D00120704755
:10193000022180F83D1000680E4988420ED0B0F1B7
:10194000804F0BD00C49884208D00C49884205D002
:101950000B49884202D00B49884204D1816801F0CA
:101960000701062903D0016841F001010160002050
:1019700070470000000001400004004000080040E3
:10198000000C00400040014070B5044690F83C0057
:101990000025012817D0012684F83C60022084F835
:1019A0003D002068826822F0770222F47F42826044
:1019B0000868502838D00DDC20284FD005DC90B3C3
:1019C000102811D14AE0022070BD302846D04028AE
:1019D0000AD13BE060282FD070280DD0B0F5805F91
:1019E00003D0B0F5005F12D0012584F83D600020DF
:1019F00084F83C00284670BDCB68D1E901212068FD
:101A000000F002FC2068816841F0770109E0CB68B2
:101A1000D1E90121206800F0F7FB2068816841F4DA
:101A200080418160E1E719E0CA684968206800F0F8
:101A3000FDFB5021206806E0CA684968206800F074
:101A400006FC6021206800F0E9FBCEE7CA6849681F
:101A5000206800F0EBFB40212068F4E72268014693
:101A60001046F0E770B5040004D094F83D0000255E
:101A700010B106E0012070BD84F83C50204600F013
:101A800023F8242084F83D002068C16821F4005127
:101A9000C160204600F0EEFB2068016921F490410E
:101AA00001612068416921F02A0141612068C16813
:101AB00041F40051C1602564202084F83D0084F881
:101AC0003E00002070BD000070B586B006461421AF
:101AD0006846FEF78FFD1F493068884238D11E489E
:101AE0000025016841F010010160006800F010005D
:101AF000059019481438016841F00101016000683F
:101B0000694600F0010005904FF4C060009002208B
:101B1000CDE9010503200390072004900F48FFF74B
:101B200033FA104C0E4820604FF00060C4E9010504
:101B30004014C4E903506561A561E5612562204652
:101B40006562FFF773F908B1FEF728FFB463A66377
:101B500006B070BD00100140443802400000024051
:101B600040640240380100202DE9F843044690F813
:101B70003D001F4616460D4620284CD1C5B1BEB1CA
:101B800094F83C00012846D0012084F83C004FF036
:101B90000008C4F84080212084F83D00FFF7EEFAE9
:101BA000A6848146E684A068B0F5805F03D004E097
:101BB0000120BDE8F883206928B12E465FF00005BA
:101BC00084F83C800EE00026FAE78021204600F0F1
:101BD000D7FBA0B9AEB116F8010B21684860E08CC4
:101BE000401EE084E08C4B464FF000020097002836
:101BF000EBD14FF04001204600F0C2FB30B1032092
:101C0000D7E735F8020BC0F30800E6E7202084F898
:101C10003D000020CDE70220CBE7FEE7F0B587B01E
:101C200014216846FEF7E6FC2748016841F0800170
:101C30000160016801F080010591016841F0040133
:101C40000160016801F004010591016841F00201A1
:101C50000160016801F002010591016841F0010194
:101C600001600068194F00F001000590002220215A
:101C70003846FFF77EFA20201124012502268DE840
:101C8000710069463846FFF77FF900224021384647
:101C9000FFF76FFA40208DE8710069463846FFF77C
:101CA00073F9012220213846FFF763FA052000F07E
:101CB00049FC012240213846FFF75BFA052000F07D
:101CC00041FC07B0F0BD000030380240000802407F
:101CD00010B50E4C012220212046FFF74AFA0122BE
:101CE00040212046FFF745FA052000F02BFC00229A
:101CF00020212046FFF73DFA052000F023FC204676
:101D00000022BDE810404021FFF733BA000802402E
:101D100010B50E4C002220212046FFF72AFA01229E
:101D200040212046FFF725FA052000F00BFC012298
:101D300020212046FFF71DFA052000F003FC204675
:101D40000022BDE810404021FFF713BA000802400E
:101D500070B50F4E0546002405FA04F000F080022D
:101D600020213046FFF705FA012240213046FFF7D7
:101D700000FA052000F0E6FB002240213046FFF784
:101D8000F8F9052000F0DEFB641C082CE4DB70BDD4
:101D90000008024070B515460E460446FFF798FF4E
:101DA0002046FFF7D5FF00F00FF83046FFF7D0FFD1
:101DB00000F00AF82846FFF7CBFF00F005F8BDE871
:101DC0007040FFF7A5BF000070B5124D0122202121
:101DD0002846FFF7CEF9012240212846FFF7C9F92E
:101DE000052000F0AFFB20212846FFF7BDF904468F
:101DF000052000F0A7FB002240212846FFF7B9F993
:101E0000052000F09FFB012C01D0012070BD0020B7
:101E100070BD0000000802407FB500241548009402
:101E2000019402941249039401604FF48031C0E997
:101E300001140461047680F820400F49C0E90A14B7
:101E40000125C561C46080F830404561FEF75DFE44
:101E500008B172B6FEE7CDE900456946054802942F
:101E6000FEF79EFD002801D072B6FEE77FBD0000A0
:101E700000200140240000200100000F2DE9F04F58
:101E800087B014216846FEF7B5FB3A480024016884
:101E900041F001010160016801F001010591016853
:101EA00041F002010160016801F002010591016841
:101EB00041F0040101600068DFF8BC9000F004000C
:101EC0004FF48E660590002231464846FFF751F9DF
:101ED000DFF8A8A04FF41867002239465046FFF7F4
:101EE00048F9DFF89CB04FF480780022414658460C
:101EF000FFF73FF948F2020000904FF4041001256B
:101F0000CDE9010569464846FFF73EF80096CDE960
:101F10000154694648460394FFF736F8A8038DE854
:101F2000310069464846FFF72FF80097CDE9015484
:101F3000694650460394FFF727F8CDF80080CDE9B5
:101F40000154694658460394FFF71EF800220C21FD
:101F50000720FFF781F90720FFF770F900220E2113
:101F60002820FFF779F92820FFF768F907B0BDE8C6
:101F7000F08F0000303802400004024000080240A8
:101F80000000024010B586B0002416480094019469
:101F90000294039404944FF08041059401606321FE
:101FA000C0E901141049C0E903148461FFF77AFC09
:101FB00008B172B6FEE74FF48050009069460948B8
:101FC000FFF7E2FC08B172B6FEE7049404A90548E5
:101FD0000594FFF729FC002801D072B6FEE706B091
:101FE00010BD00006C000020FEFFFF00FEE7FEE7D2
:101FF00000B58DB00B46024606A16846FEF7BCF957
:1020000082B2642369460648FFF7AEFD00F0A6FAE7
:102010000DB000BD25732E7478743D222573220007
:10202000B400002000B585B00B46024606A1684604
:10203000FEF7A2F982B2642369460648FFF794FDD1
:1020400000F08CFA05B000BD25732E70636F3D253E
:1020500064000000B40000207047704710B50446CB
:10206000FFF736FE2046FFF773FEFFF7ADFE0020B8
:10207000FFF76EFEFFF7A8FE0020FFF769FEFFF7EF
:10208000A3FEFFF745FE2046FF22BDE810401221C7
:10209000FFF780BE10B50446FFF71AFE2046FFF793
:1020A00057FEFFF791FE0120FFF752FEFFF78CFE6F
:1020B0000020FFF74DFEFFF787FEFFF729FE2046C1
:1020C000FF22BDE810401321FFF764BEFFF75CB8A4
:1020D00030B593B030216846FEF78CFA14210CA875
:1020E000FEF788FA1C480024016841F08051016025
:1020F000006800F0805011901848016841F4404198
:1021000001600068022500F4404011900120039016
:1021100010200490009506950820CDE90740642022
:10212000CDE9090504200B906846FFF7B3F908B123
:1021300072B6FEE70F20CDE90C054FF48050CDE9D3
:102140000E4003210CA81094FFF7B8F8002801D026
:1021500072B6FEE713B030BD403802400070004058
:102160000248016841F470010160704788ED00E0A9
:10217000F0B502681D4B1E4C9F031E4D1E4E98422B
:1021800007D0B84205D0A04203D0A84201D0B04247
:1021900004D122F0700C4A6842EA0C02984210D036
:1021A000B8420ED0A0420CD0A8420AD0B04208D00B
:1021B000124CA04205D0124CA04202D0114CA042B9
:1021C00003D122F44074CA6822434C6922F0800291
:1021D000224302608A68C2620A688262984201D120
:1021E0000969016301214161F0BD00000000014067
:1021F0000004004000080040000C00400040014086
:10220000004401400048014010B5846842EA0322BE
:1022100024F47F440A432243826010BD826822F086
:1022200070020A4342F007018160704710B5036AEB
:10223000046A24F001040462846924F0F00444EA8E
:10224000021423F00A020A438461026210BD10B531
:10225000036A23F0100303628369046A23F4704362
:1022600043EA023224F0A00343EA011182610162D1
:1022700010BD000070B5044600680169E26821F4F1
:102280004051114301612169A068E2690843616915
:10229000114308432168CA6849F20C639A43024318
:1022A000CA6020684169A26921F44071114341610B
:1022B00031492068884202D03049884202D1FFF774
:1022C000A7F801E0FFF794F8E269002319216425DB
:1022D0003226B2F5004F626828D0A0FB0101930FAF
:1022E0009200FDF7D1FF0146B0FBF5F06FF0180248
:1022F000504301EB800006EB0010B0FBF5F000F05E
:10230000F002B1FBF5F002EB0012B1FBF5F06FF05B
:102310001803584301EB800006EB0010B0FBF5F00A
:1023200000F00F0021681044886070BDA0FB01011F
:1023300092185B41FDF7A8FF0146B0FBF5F00201E2
:10234000B1FBF5F06FF01803584301EB800006EB8A
:10235000C000B0FBF5F000F0F80002EB4002B1FB6A
:10236000F5F0584301EB800006EBC000B0FBF5F040
:1023700000F00700D6E70000001001400014014003
:102380002DE9F041984617460E460446069D27E083
:10239000681C25D02DB1FEF7F1FEA0EB0800A84285
:1023A0001ED920680C3050E8001F21F4D07140E89D
:1023B0000012002AF5D12068143050E8001F21F0E7
:1023C000010140E80012002AF5D1202084F83D00E8
:1023D00084F83E00002084F83C000320BDE8F08132
:1023E0002068006836EA000004D00020B842CFD050
:1023F0000020F3E70120F9E7FEE7000010B59AB0EE
:1024000014460D2821D2DFE800F007090B0D0F114B
:10241000131517191B1D1F003D2216E04D2214E055
:102420005D2212E06D2210E07D220EE08D220CE094
:102430009D220AE0AD2208E0BD2206E0CD2204E0A4
:10244000DD2202E0ED2200E0FD220B4607A101A8FB
:102450000094FDF791FF82B24FF6FF7301A90D487A
:10246000FFF782FB00F07AF81AB010BD787374722F
:1024700020352C25642C3438302C31362C342C2546
:10248000732C424C41434B2C302C312C312C2225C7
:1024900073220000B40000200907090E002804DBA5
:1024A00000F1E02080F80014704700F00F0000F108
:1024B000E02080F8141D704730380A2801D201202E
:1024C000704700207047000070B50E4CA0780028BF
:1024D00017D14FF6E07529460BA0FFF7A3FD0BA11E
:1024E00009A0FFF785FD29460CA0FFF79BFD0CA175
:1024F0000AA0FFF77DFD0CA10EA0FFF779FD0120DA
:10250000A07070BD0E00002074370000534D2D5395
:102510003932385520554220435443007438000066
:10252000524556302E36000030303A30303A303096
:1025300000000000743900000148FFF7F3B9000003
:102540006C000020044900220B685A6209684A6A3C
:102550008242FCD3704700006C00002010B5642359
:10256000032204490448FFF7FFFABDE810400A209F
:10257000FEF7C6BC04000020B400002008B5FEF73A
:102580000BFEFFF7A5FDFFF779FC31480024016839
:1025900041F4800101600068224600F48000009050
:1025A0000D213A20FEF758FE3A20FEF747FE2A4852
:1025B000284901604FF4E131C0E901140C21C460E5
:1025C000C0E904418461C461FFF74CFA08B172B6F6
:1025D000FEE7FFF721FCFFF7D5FCFFF7ADFFFFF7A4
:1025E0001DFB4FF47A742046FEF78AFC1B4D012236
:1025F00011022846FEF7BDFD2046FEF781FC0122B0
:10260000D1022846FEF7B5FD4020FFF727FD402008
:10261000FFF740FD4220FFF721FD4220FFF73AFD82
:102620000F4C104F4FF48046A51C0B489038FEF716
:10263000C7FA09489038FEF765FA2080FFF744FF93
:1026400031463846FEF790FDE87000F04FF8ECE7B1
:102650003038024000100140B40000200008024061
:102660000C0000200004024038B5FEF787FD194C2D
:102670006168401AB0F57A7F05D9207A401C207233
:10268000FEF77CFD6060607A217A884212D0A078E3
:1026900011A1401CC0B2A07000900E48637822784F
:1026A0003438FDF769FE0B490FA03439FFF7A0FC61
:1026B000207A6072A0783B280BD96078401CC1B2A8
:1026C000002061703B2903D92178491C217060707A
:1026D000A07038BD2C010020253032643A253032FC
:1026E000643A2530326400007439000008480178EB
:1026F000012903D0022909D1FFF7B6BFC17801290A
:1027000004D1044AD17002210170F5E7704700003E
:102710000E0000202C0100204FF04070E1EE100A66
:10272000704700061016000610160000000000009A
:10273000000001020304060708090000000001026E
:102740000304040000080000000000000002000173
:102750000000100074270008000000202400000082
:10276000D40100089827000824000020D4070000A6
:10277000F001000800000000FFFFFF00FD2300083B
:102780000000000000000000010000001000000038
:08279000000000000024F40029
:040000050800019955
:00000001FF
